:02000002D0002C
:1040000000400D00FC990D00000006000C000501A9
:084010000401D40700000000C8
:04401800E0900D0027
:10401C0009480A49884208B505D0094A824202D0AB
:10402C00121A04F0FDFE0748074A0021121A04F088
:10403C001FFF014808BD00BF78DE032064990D0006
:10404C00E8DE0320E8DE0320F0E7032070B5074E1E
:10405C00074C04F079FDA41BA4080025A54200D14F
:10406C0070BD56F8043B98470135F7E738990D00B9
:10407C005C990D0000F0C6B808B500F043F9BDE836
:10408C00084004F023BD00F09FBE00F0A5BE000068
:10409C0008B5034A00210C2000F0D2FDFEE700BF5A
:1040AC00DD4A0D000078B0FA80F04009704701231A
:1040BC00037070477047006A0368DB68184700009C
:1040CC0013B5054B1B788DF800303C23044602F0E9
:1040DC003DFD204602B010BD00DF03200A4B10B599
:1040EC000446036003F076FA214603F078FC04F0F2
:1040FC0063FC04F055FC2046044B40F8043B03F0F1
:10410C005BFB204610BD00BFCC920D00B4920D009D
:10411C0010B50446FFF7E2FF2046242104F04BFDC6
:10412C00204610BD0EB410B58DB00FAA016852F820
:10413C00044B039200232020CDE90403CDE9004277
:10414C001E2004AA00F08CFD0DB0BDE8104003B099
:10415C00704738B5046805467CB16368013B636001
:10416C005BB9236820469B689847A368013BA36012
:10417C001BB923682046DB689847284638BD0000E9
:10418C0090B501F1080389B023F0070300AFADEB44
:10419C00030D0A460C460146684604F041FE002316
:1041AC00694638460DF8043004F025FA114907F138
:1041BC00100004F020FA07F11001384604F0BCFAA4
:1041CC00044607F1100004F0CBF9384604F0C8F9A6
:1041DC0064B1094A094907F11000FFF771FF07F1B3
:1041EC001400FFF7B6FF2437BD4690BD04496A465C
:1041FC00F1E700BFF4900D00FA900D0013910D0043
:10420C0023910D0010B596B0354A36490DA8FFF72D
:10421C0057FF0EA8FFF79DFF04F0CEFB4FF416518D
:10422C0004F0BAFB01F02EFC01F076FC2E4A2F496B
:10423C00104601F0C9FA01F025FC2D4A01460DA8E3
:10424C0002F032FA0DA801F009FD01F01BFC294A1D
:10425C0001460DA802F028FA0DA801F0FFFC0DA8EC
:10426C0001F0BFF824490DA801F0D4F8234903A8A4
:10427C0000F032FF03A908A800F02EFF08A800F0F8
:10428C007BFF044608A814BB00F095FF0094ADF822
:10429C000A0002230DF10A0203210DA801F059F8BE
:1042AC000DA908A801F014F9089A154903A8FFF7FD
:1042BC0007FF04A8FFF74DFF08A804F051F901F01F
:1042CC00E1FB00220DA901F05DFC16B010BD00F061
:1042DC0077FF00230093024610230721DDE700BF80
:1042EC0035910D005C910D0044DF03208D410D00D4
:1042FC001CE603204CDF032063910D00ECDE032051
:10430C006C910D002DE9F04FAE4CA7B000F0E8FB1E
:10431C002368C01AB0F57A7F02D300F0E1FB20606D
:10432C0001F0B0FB01F074FC68B3A74C4FF000082F
:10433C0004F042FB03681B699847D8B12368132B20
:10434C0018D8032000F078FD04F036FB03681B69D5
:10435C0098471EAD07460026A946BE4280F2B080A3
:10436C0004F02AFB03685B6998470136287005F84E
:10437C00018FF2E7226832B100239449944801F08E
:10438C0089F900232360934C00F0AAFB2368C01A20
:10439C00B0F5FA6FC0F0918000F0A2FB206001F044
:1043AC0071FB8D49142201F00BFC0746002800F02C
:1043BC008480DFF824820026542404FB068316FB39
:1043CC0004F408EB040593F95020099200212846C7
:1043DC0000F039FE01210890284600F034FE02213D
:1043EC000790284600F02FFE03218146284600F056
:1043FC002AFE04218246284600F025FE052183462C
:10440C00284600F020FE079B74490093CDE903B0C9
:10441C00DDE90832CDE9019A71480834FFF782FED4
:10442C0044440FA800F022FE01220FA9204601F0FF
:10443C00ACF8214681460BA801F04AF80D9B23B13C
:10444C000B9A68496648FFF76DFE04F0B5FA664AA8
:10445C004B46002104F033F804F0AEFA0FA90446E1
:10446C0014A800F039FE14A919A800F035FE00219B
:10447C005E4A19AB204604F022F85D490BA804F003
:10448C0068F9002840D15B490BA804F062F90028B8
:10449C003AD159490BA804F05CF9002834D157499A
:1044AC000BA804F056F900282ED101360BA8F6B251
:1044BC0004F056F8BE42FFF47FAF27B0BDE8F08F92
:1044CC0004F07AFA0368414D5B69984723685A1CDB
:1044DC002260E85404F070FA23681D44036815F850
:1044EC00011C9B689847464A464919A8FFF7E8FD06
:1044FC001AA8FFF72EFE19A842494A46FFF7E0FD1D
:10450C001AA8FFF726FE13E701F0BCFA01230146B7
:10451C002A4619A802F002F819A93B4801F024FA1E
:10452C0019A801F0A2FB384801F04CFA002845D03C
:10453C002F490BA804F00DF938B119A82C4A3349AE
:10454C00FFF7BEFD1AA8FFF704FE2A490BA804F0DA
:10455C0000F938B119A8274A2C49FFF7B1FD1AA860
:10456C00FFF7F7FD24490BA804F0F3F838B119A8AC
:10457C00214A2649FFF7A4FD1AA8FFF7EAFD1F49B7
:10458C000BA804F0E6F838B119A81C4A1F49FFF72C
:10459C0097FD1AA8FFF7DDFD0B9A1C4919A8FFF728
:1045AC008FFD1AA8FFF7D5FD194A1A49164801F0D4
:1045BC00E5F9194A0649144801F0E0F90BA803F093
:1045CC00CFFF7AE72CDF032024E6032008E6032044
:1045DC003CDF032030DF032054DF032093910D00D8
:1045EC004CE60320C3910D00DA910D00EA910D0009
:1045FC0002920D000F920D004F910D001C920D00B8
:10460C0076910D008C910D0034DF03202D920D005E
:10461C0018DF032044DF032004DF032070B5D0E94A
:10462C0000531426044606FB0356AE4204D028461B
:10463C0003F096FF1435F8E7206800F0CDFB204618
:10464C0070BDF0B5164691B00022C0E900220446B8
:10465C000D460BAF194606A800F03EFD16993846DC
:10466C0000F03AFD33788DF81430189B0293179BA9
:10467C002046CDE9007305AA06AB294601F04AFB9A
:10468C00204611B0F0BD8842F8B504460D461646DA
:10469C0016D9904215D2A2F11406751AA1F114077D
:1046AC002C44B7421CD02CB13146204603F0D4FF29
:1046BC00337C2374304603F053FF143E143CF0E774
:1046CC000ED0B5420CD02CB12946204603F0C4FFC5
:1046DC002B7C2374284603F043FF14351434F0E785
:1046EC00F8BD2DE9F0410023C0E9003383604F6829
:1046FC009F4204460E4623DD4FF0140808FB07F0DA
:10470C0000F062FB0546D8B1D4E9001208FB021296
:10471C00FFF7B9FF206800F05FFB2560A760D6E9C2
:10472C00007308FB0378B84508D03946284603F0D7
:10473C00ADFF3B7C2B7414371435F4E7736863605E
:10474C002046BDE8F081000030B5564B95B00024F2
:10475C001C7000F0CDF9CDE90444069404F02CF95A
:10476C0004A9054607A8504CFFF7BBFF07A90AA8E8
:10477C00FFF7B7FF4D4B23600AA90FA8FFF7B1FF56
:10478C000FAA0121201D03F07DFA0FA8FFF746FFA9
:10479C000AA8FFF743FF464B2360256207A8FFF7E3
:1047AC003DFF444B236004F007F94FF4165104F01D
:1047BC00F3F802F00FFF214603F0F6F904A8FFF717
:1047CC002DFF3D4A3D493E4D204604F0EFF93D4951
:1047DC003D4800F0A3FD3D493D4800F09FFD3D499B
:1047EC003D4800F09BFD1424284600F027FC05F101
:1047FC00080000F0F6FD05F12C0000F0F2FD013C84
:10480C0005F15405F0D1354800F018FF2A4A344917
:10481C00324804F0CBF9334800F010FF264A3049F7
:10482C00304804F0C3F9304801F07CF8224A2F4993
:10483C002D4804F0BBF9102327498DF81C300AA829
:10484C0000F04AFC20490FA800F046FC0FAB009387
:10485C0007AA0AABCDE9014425492648FFF7F1FE2A
:10486C00154A1F49234804F0A1F9042318498DF86F
:10487C001C300AA800F030FC13490FA800F02CFCE7
:10488C001D4B01930FAB009307AA0AAB1B49029473
:10489C001B48FFF7D6FE084A1149194804F086F95F
:1048AC0015B030BD00DF0320E4E50320B4920D0009
:1048BC0004960D00CC920D00E8DE0320E9400D00BB
:1048CC0054DF032035920D00ECDE03205A920D00CC
:1048DC0004DF03207F920D0018DF032044DF032048
:1048EC00695C0D003CDF032034DF0320775C0D0096
:1048FC00A4920D001CE603208D410D00A7920D0023
:10490C004CDF032008B5024B1B689B68019308BD64
:10491C007802030008B5024B1B681B6D019308BDA0
:10492C007802030008B5024B1B689B6D019308BD10
:10493C007802030008B5024B1B681B6E019308BD7F
:10494C007802030008B5024B1B68DB6F019308BDAE
:10495C007802030008B5034B1B68D3F8843001932D
:10496C0008BD00007802030008B5034B1B68D3F8A0
:10497C009830019308BD00007802030008B5034B82
:10498C001B68D3F8A830019308BD0000780203001F
:10499C0008B5034B1B68D3F8B430019308BD000075
:1049AC007802030008B5034B1B68D3F8BC300193A5
:1049BC0008BD00007802030008B5034B1B68D3F850
:1049CC00C430019308BD00007802030008B5034B06
:1049DC001B68D3F8D830019308BD0000780203009F
:1049EC0008B5034B1B68D3F8DC30019308BD0000FD
:1049FC007802030008B5034B1B68D3F8E030019331
:104A0C0008BD00007802030008B5034B1B68D3F8FF
:104A1C00E430019308BD00007802030008B5034B95
:104A2C001B68D3F8EC30019308BD0000780203003A
:104A3C0008B5034B1B68D3F8F030019308BD000098
:104A4C007802030008B5034B1B68D3F8F4300193CC
:104A5C0008BD00007802030008B5034B1B68D3F8AF
:104A6C000031019308BD00007802030008B5034B28
:104A7C001B68D3F80431019308BD000078020300D1
:104A8C0008B5024B1B685B6C019308BD4802030020
:104A9C0008B5024B1B689B6C019308BD48020300D0
:104AAC0008B5024B1B68DB6C019308BD4802030080
:104ABC0008B5024B1B685B6D019308BD48020300EF
:104ACC0008B5024B1B685B68019308BD1802030014
:104ADC0008B5024B1B68DB68019308BD1802030084
:104AEC0008B5024B1B685B69019308BD18020300F3
:104AFC0008B5024B1B681B68019308BD2C02030010
:104B0C0008B5024B1B685B69019308BD6402030086
:104B1C0008B5024B1B689B68019308BD6802030033
:104B2C0008B5024B1B68DB68019308BD68020300E3
:104B3C0008B5024B1B681B68019308BD3C020300BF
:104B4C0008B5024B1B689B68019308BD3C0203002F
:104B5C0008B5024B1B68DB68019308BD3C020300DF
:104B6C0008B5024B1B681B69019308BD3C0203008E
:104B7C0008B5024B1B685B69019308BD3C0203003E
:104B8C0008B5024B1B689B69019308BD3C020300EE
:104B9C0008B5024B1B68DB69019308BD3C0203009E
:104BAC0008B5024B1B689B6A019308BD3C020300CD
:104BBC0008B5024B1B68DB6A019308BD3C0203007D
:104BCC0008B5024B1B681B68019308BD4C0203001F
:104BDC0008B5024B1B685B68019308BD4C020300CF
:104BEC0008B5024B1B689B68019308BD4C0203007F
:104BFC0008B5024B1B681B69019308BD4C020300EE
:104C0C0008B5024B1B685B69019308BD4C0203009D
:104C1C0008B5024B1B689B69019308BD4C0203004D
:104C2C0008B5024B1B68DB69019308BD4C020300FD
:104C3C0008B5024B1B681B6A019308BD4C020300AC
:104C4C0008B5024B1B685B6B019308BD6002030047
:104C5C0008B5024B1B681B6D019308BD6002030075
:104C6C0008B5024B1B685B6D019308BD6002030025
:104C7C0008B5024B1B68DB6E019308BD6002030094
:104C8C0008B5024B1B681B6F019308BD6002030043
:104C9C0008B5024B1B685B68019308BD200203003A
:104CAC0008B5024B1B685B69019308BD2002030029
:104CBC0008B5024B1B68DB6C019308BD2002030096
:104CCC0008B5024B1B685B6D019308BD2002030005
:104CDC0008B5034B1B68D3F88830019308BD00005E
:104CEC002002030008B5034B1B68D3F894300193E2
:104CFC0008BD00002002030008B5024B1B685B696D
:104D0C00019308BD4402030008B5024B1B681B6AE3
:104D1C00019308BD4402030008B5024B1B68DB6B12
:104D2C00019308BD4402030008B5024B1B685B6885
:104D3C00019308BD4002030008B5024B1B689B6839
:104D4C00019308BD4002030008B5024B1B68DB68E9
:104D5C00019308BD4002030008B5024B1B681B6998
:104D6C00019308BD4002030008B5024B1B685B6948
:104D7C00019308BD4002030008B5024B1B689B69F8
:104D8C00019308BD4002030008B5024B1B68DB69A8
:104D9C00019308BD4002030008B5024B1B681B6A57
:104DAC00019308BD4002030008B5024B1B681B6B46
:104DBC00019308BD4002030008B5024B1B685B6BF6
:104DCC00019308BD4002030008B5024B1B681B6829
:104DDC00019308BD1C02030008B5024B1B685B68FD
:104DEC00019308BD1C02030008B5024B1B689B68AD
:104DFC00019308BD1C02030008B5024B1B685B6ADB
:104E0C00019308BD1C02030008B5024B1B68DB6A4A
:104E1C00019308BD1C02030008B5024B1B681B6BF9
:104E2C00019308BD1C02030008B5024B1B685B6CA8
:104E3C00019308BD1C0203000021FFF731BF10B520
:104E4C00836804460BB903F0BAFEC3689847A3689D
:104E5C001BB1032221462046984720461021BDE86D
:104E6C00104003F0A8BE70477047704770470000B1
:104E7C00064B994210B500F10C0405D0084603F01E
:104E8C00A1FE002808BF0024204610BDD0940D00C0
:104E9C00064B994210B500F10C0405D0084603F0FE
:104EAC0091FE002808BF0024204610BDD0940D00B0
:104EBC00064B994210B500F10C0405D0084603F0DE
:104ECC0081FE002808BF0024204610BDD0940D00A0
:104EDC00483003F045BB10B56021044603F06BFE6F
:104EEC00204610BD10B52421044603F064FE204674
:104EFC0010BD10B53021044603F05DFE204610BDF8
:104F0C00FFF7C3B8FFF7C1B8FFF7BFB810B5036818
:104F1C0004469B689847A368013BA3602BB92368A0
:104F2C002046DB68BDE81040184710BD10B504469C
:104F3C00006808B1FFF7ACFD204610BDF0B50025A8
:104F4C00EC1C8C420DD86E1C445D875D974205D1DC
:104F5C002644B14205D31D60601CF0BD01342544CC
:104F6C00EEE70020F9E7000010B500238AB02022FC
:104F7C00CDE902230446084A0092084902AA0120FE
:104F8C00FFF766FE20680649008800232246FFF7DB
:104F9C0009FD0AB010BD00BFE7920D00DC920D00B8
:104FAC0085620D00024A00210A20FFF749BE00BFAE
:104FBC00DD4A0D0038B503688B4205460C460CD013
:104FCC0011B14B6801334B60286828B14368013B31
:104FDC0043600BB9FFF79AFF2C60284638BDA0F14F
:104FEC003003DAB2092A01D818467047A0F16103E0
:104FFC00052B01D857387047A0F14103052B94BFFE
:10500C0037384FF0FF30704710B500230370044B56
:10501C0004461868FFF744FD01232370204610BD99
:10502C0030E6032010B5037804461BB1024B186818
:10503C00FFF73EFD204610BD30E603200022426003
:10504C00026082717047052994BF405C0020704754
:10505C0008B582798B799A4206D1062203F0D2FEEA
:10506C00B0FA80F0400908BD0020FCE70122026183
:10507C00064A11680160516841601189927A827206
:10508C0000220181C0F80B20C2737047D8940D0028
:10509C000B7C13F0FD0310B50FD10E4AC0F80B308A
:1050AC0014680460546844601489927A0361048122
:1050BC008272C3730B88838110BD0123036101F1DC
:1050CC001002034651F8044B43F8044B9142F9D1BA
:1050DC00F2E700BFD8940D0010B50B69036101F124
:1050EC001002034651F8044B43F8044B9142F9D19A
:1050FC0010BD10B50B460446B1B1012A01F11002E6
:10510C000AD1014653F8040B41F8040B9342F9D130
:10511C0001232361204610BD411E12F8010D01F838
:10512C00010F9A42F9D1F3E7102203F0A1FEF1E747
:10513C0010B503460C46FFF799FF00221A619C81BB
:10514C00184610BD38B5044615461A46FFF7D1FF70
:10515C00A581204638BD000008B5026922B98089B6
:10516C00003818BF012008BD0249102203F04AFE86
:10517C00F6E700BFF8940D000069704738B50C468F
:10518C0014220021054603F073FE23693BB9627BB0
:10519C002B74237B43EA02232B80284638BD012342
:1051AC002B7404F110022B4654F8041B43F8041B17
:1051BC009442F9D1F1E7427B007B40EA0220704730
:1051CC00704710B50B69036101F11002034651F8E9
:1051DC00044B43F8044B9142F9D110BD10B586B085
:1051EC000446012201A8FFF784FF01A92046FFF71E
:1051FC00E8FF06B010BD10B586B0044601A8FFF755
:10520C0097FF01A92046FFF7DCFF06B010BD10B5D3
:10521C0086B0044601A8FFF73BFF01A92046FFF723
:10522C00D0FF06B010BD08B502690B699A4206D1D1
:10523C00102203F0E7FDB0FA80F0400908BD002011
:10524C00FCE7000001232DE9F3410361324B1A689E
:10525C0002605A68426000251A899B7A02810446D2
:10526C008372C0F80B50C5730E4621B3242130460F
:10527C0003F08BFE042821D1ADF8045001AFB51C0E
:10528C00063615F8020CFFF7AAFEB0F1000810DB89
:10529C0015F8010CFFF7A3FE00280ADB023540EAE3
:1052AC000810AE4207F8010BEBD1BDF804305BBA25
:1052BC00A3810023236102B0BDE8F08110272421D3
:1052CC00304603F062FEA84206D827440023BC42B5
:1052DC00F1D007F8013DFAE7002FECD0705DFFF735
:1052EC007EFE030615D40001013F5FFA80F804F836
:1052FC0007802421304603F048FE0135A84208D926
:10530C00705DFFF76CFE40B20028A4BF40EA0800B5
:10531C00E0550135D3E700BFD8940D0013B5044612
:10532C000191FFF7A3FE20460199FFF78BFF204662
:10533C0002B010BD38B5054601B11AB900242C6273
:10534C00204638BD1F2A28BF1F22144603F068FDD3
:10535C00F5E72DE9F34789469DF82870016A044664
:10536C001E46904632B301AB4A46FFF7E7FD256A6D
:10537C00B31C1FBB10B3EF183F1A1F2F19D8DDF841
:10538C00049009F1020AA5EB0902121A00EB0901BB
:10539C0006EB0A0092B22144204403F04FFD731C2B
:1053AC0004F809303246414604EB0A0003F038FD9C
:1053BC002762216A084602B0BDE8F0872B441F2BF8
:1053CC00F7D8731C6355A81C25442062324685F817
:1053DC0001904146204403F023FD236A33442362A9
:1053EC00E7E71FB50446024600F11F01002302F84F
:1053FC00013B9142FBD123620093062201238DF8DD
:10540C000F2019460DF10F022046FFF7A2FF204690
:10541C0004B010BD1FB50A46044614211046039271
:10542C0003F0B3FD002103460091039A09212046A5
:10543C00FFF78FFF04B010BD73B50A460E4601ABE3
:10544C00016A0446FFF77AFD054678B10198226A95
:10545C004119121A2144521B204403F0E1FC206A2A
:10546C00401B206231462046FFF7E6FF02B070BDBC
:10547C00F7B515461F460A4601AB016A0646FFF70B
:10548C005DFD30F002040BD0841EBC4228BF3C46AC
:10549C0035B10199023122463144284603F0C0FC53
:1054AC00204603B0F0BD37B513460C4601920A46B0
:1054BC0008210546FFF7DCFF40B9019B2246092174
:1054CC00284603B0BDE83040FFF7D2BF03B030BD73
:1054DC00F0B50C4689B00C49054603F08CF81F2238
:1054EC0069462046FFF7DFFF064650B16C460027A1
:1054FC0014F8011B284603F0FDF810B10137BE4229
:10550C00F6D1284609B0F0BDCB950D002DE9F04F32
:10551C0085B00026074689469046009335464FF0E5
:10552C00140B396AB1422CD903AB4A46891BB81902
:10553C00FFF704FD824620B3009B9D4221D2042834
:10554C00039C12D134443C446A1CE078A17801924B
:10555C0041EA00210BFB0580FFF74DFE019A154631
:10556C0003980AEB00031E44DBE71228F8D102343F
:10557C00A1196A1C39440BFB05800192FFF72EFE22
:10558C00ECE7284605B0BDE8F08F2DE9E043134663
:10559C000E4617460A4602218046FFF7B7FF4FF02A
:1055AC0014093B1A09FB0062054603214046FFF72C
:1055BC00ADFF05447B1B09FB056206214046FFF746
:1055CC00A5FF05447B1B09FB056207214046FFF73D
:1055DC009DFF2844BDE8E08338B54FF6FF730025E6
:1055EC00044643800E22294605700571063003F0EF
:1055FC003FFC04F11400FFF739FD04F12800FFF71C
:10560C0035FD044904F13C0002F0F5FFC4E91355E3
:10561C00204638BDCB950D0010B5D0E9063203EB12
:10562C00C2029342184606D0046824888C4203F1C7
:10563C000803F6D110BD0020FCE70000002370B574
:10564C00036005466020FEF71EFD041E04F10C06E7
:10565C0007D00123C4E90133044B23603046FFF724
:10566C00BBFFC5E90064284670BD00BF84940D00E3
:10567C0010B502680446D06C18B10B68D864126D72
:10568C001A6520460B6840F8043B4968FFF792FC0A
:10569C00204610BDF0B5064685B01F460D460029C4
:1056AC0050D0002A4ED004682378F42A28BFF42264
:1056BC0043B32379980709D5A08903920023FFF7F8
:1056CC0067F90028039A03DA05B0F0BD6FF0770094
:1056DC0034682379D90609D5012F07D0A089002376
:1056EC00294605B0BDE8F040FFF7B6B99B06EBD5EF
:1056FC00022FE9D0A0890023294605B0BDE8F0406F
:10570C00FFF7B4B960884FF6FF7188421CD021793D
:10571C004E0701D5012F04D10B0709D46FF0770088
:10572C00D2E7A189009313462A46FFF759F9CBE734
:10573C00022FF3D00023A189009313462A46FFF7CA
:10574C0045F9C1E70248BFE76FF0D100BCE700BFE5
:10575C00F2FEFFFF10B503681A7886B052BB5C8866
:10576C004FF6FF70844225D0188A30B3144800904D
:10577C0014480592CDE90322CDE901035888ADF810
:10578C000C00188AADF80E009889ADF8100059B1CC
:10579C001A79920644BF022205921B79DB0642BF9E
:1057AC00059B43F00103059300216846FFF74AF976
:1057BC0006B010BD6FF0D100FAE76FF07700F7E795
:1057CC0001001800D15A0D000368C3E91312704789
:1057DC0070B50026066004462420FEF754FC031E18
:1057EC0003F10C0508D00122C3E90122044A1A6016
:1057FC002846FFF73BFC1E62C4E90053204670BDEF
:10580C00A0940D002DE9F0414FF00008C0F8008085
:10581C00054624200F46FEF736FC041E04F10C0648
:10582C000DD00123C4E90133074B23603046FFF749
:10583C001DFCC4F8208039463046FFF7C2FCC5E990
:10584C0000642846BDE8F081A0940D002DE9F043DA
:10585C0020238BB00026CDE902360D462E4B00934B
:10586C002E49DFF8BC90334602AA0120FFF7F0F96D
:10587C002B68D3E903474FF01C0804EBC707083427
:10588C00A4F108039F42296819D0ADF80A8054F896
:10589C00083C9B8AADF8203054F8083CDB8AADF804
:1058AC002230088800962B464A4602A9FFF784F856
:1058BC00002804F10804E3DA0BB0BDE8F083D1E969
:1058CC000646002704EBC6060834A4F108039E42E2
:1058DC0020D054F8083CDB89D3B11022002103A856
:1058EC00029703F0C5FA54F8083CD9892B6802AA30
:1058FC00188800971323FFF77DF848B10AAB1844BA
:10590C0002A900F8207C54F8080C3C3002F0C9FEC7
:10591C000834DAE70020CFE703930D00DC920D008A
:10592C00A1650D0038B50024046005463020FEF753
:10593C00AAFB034688B10122C0E90122094A026090
:10594C004FF6FF7282810E30FFF778FBC3E90644F5
:10595C00C3E90844C3E90A44DC826B600C332B6056
:10596C00284638BDBC940D0010B50B68044640F8B1
:10597C00043B4968FFF71EFB204610BD2DE9F043A0
:10598C000368D3E9064387B00E46174604EBC308F9
:10599C004445A14614D054F8081B01A81431FFF754
:1059AC009BFB394601A8FFF73EFC05460028EFD0CB
:1059BC0049463046FFF75CFE284607B0BDE8F08349
:1059CC000025F9E7036818884FF6FF73C01A18BF53
:1059DC000120704702680B68C2F802304B68C2F8AD
:1059EC0006307047096851F8022F02604A6842601D
:1059FC0070471FB50B4601681A68098812889142D6
:105A0C000CD101466846FFF7EDFF02A81946FFF7D7
:105A1C00E9FF02A96846FFF71BFB00B9002005B09F
:105A2C005DF804FB10B504463420FEF72CFB014650
:105A3C0068B10023C0E90033C0E90233C0E9043384
:105A4C00C0E90633C0E90833C0E90A3303632160B7
:105A5C0019B90A4A0A20FFF7F3F80020FEF752FFA3
:105A6C0020B1064A00210A20FFF7EAF82168044811
:105A7C000022FEF7DDFF204610BD00BFDD4A0D0001
:105A8C00F15E0D0010B50B4C2378BFF35B8FDB0779
:105A9C000ED42046FEF706FB50B10748FFF7C2FFB5
:105AAC002046FEF704FB054A0549034803F07EF83F
:105ABC00014810BD28E6032034E60320E8DE03206D
:105ACC00E15C0D0070B50368093B012B8AB00446FC
:105ADC000D4612D8FFF7D6FFA1880068FFF79CFD92
:105AEC00024660B92023CDE90230094B00930949E5
:105AFC00034602AA3220FFF7ABF80AB070BDEE6C79
:105B0C00002EFAD0D4E903102B6DB047F5E700BF97
:105B1C0026930D00DC920D0013B501A8FFF774FA63
:105B2C000020FEF7EFFE044601A8FFF77BFA04EA1B
:105B3C00E47002B010BD084611B90A46FEF7EABE81
:105B4C00096A0022FAE707B5084629B90A4603B0E4
:105B5C005DF804EBFEF7E6BE01210190FFF76CFC4B
:105B6C0001980022016AF2E713B501A8FFF74CFA7D
:105B7C000020FEF7DFFE044601A8FFF753FA20468B
:105B8C0002B010BD7FB5054603A801911646FFF77C
:105B9C003BFA01992846FFF7CEFF041E09DB31467C
:105BAC002846FFF7D0FF041E03DB2846FFF7DCFF77
:105BBC00044603A8FFF736FA204604B070BD000077
:105BCC0030B58BB00D4601A81446FFF71DFACDB1C8
:105BDC00C4B100220C48049202A9CDE90554CDE9C8
:105BEC000222CDE907220992FEF7ACFE041E0298B0
:105BFC00A8BF079CFFF7F0F801A8FFF713FA20469F
:105C0C000BB030BD014CF7E75D600D00F2FEFFFFFD
:105C1C000368D8690028D4BF0020012070470B68A6
:105C2C00036013B15A6801325A60704710B551F8CD
:105C3C00043B044640F8043BFFF7F1FF23680BB923
:105C4C00FFF7B0F9204610BD10B551F8043B0446DF
:105C5C0040F8043BFFF7E3FF204610BD10B50446A7
:105C6C000430FEF776FA204610BD10B50446043019
:105C7C00FEF76FFA204610BD70B5D0E9005304460C
:105C8C0005EBC306AE4204D0281DFEF762FA0835B8
:105C9C00F8E72068FFF7A0F8204670BD70B5D0E992
:105CAC000053044605EBC306AE4204D0281DFEF794
:105CBC0050FA0835F8E72068FFF78EF8204670BDDB
:105CCC0010B504462430FFF7E9FF04F11800FFF784
:105CDC00D3FF10BDF8B504680646C4B1D4E9065329
:105CEC0005EBC307AF4204D0281DFEF732FA083586
:105CFC00F8E7A069FFF770F804F10C00FFF7CEFF8E
:105D0C002046FFF7B9FF3421204602F054FF3046FD
:105D1C00F8BD00002DE9F04385B08046994660201F
:105D2C0000230D4616460093FEF7ADF9041E04F150
:105D3C000C071CD01C4B23600122C4E901223678CD
:105D4C003846FFF749FC2946267404F1480002F056
:105D5C00A8FC0D9BA3650E9BE365494604F120004E
:105D6C00FFF72FFA0C9904F13400FFF72AFA0023FD
:105D7C00CDE90033D8F800300293C8F80070D8F899
:105D8C000430C8F8044003A80393FEF7E2F901A815
:105D9C00FEF7DFF9D8F8001019B9044A0A20FEF70B
:105DAC004FFF05B0BDE8F08384940D00DD4A0D0073
:105DBC008842F8B506460C46154618D9904217D2BB
:105DCC00A2F10805A1F10807691A4418AF4220D0C6
:105DDC002E1D34B120462B6840F8043B3146FFF7AA
:105DEC001EFF3046FEF7B5F9083D083CEEE710D033
:105DFC00AC420ED0271D36B13046236840F8043B28
:105E0C003946FFF70CFF3846FEF7A3F9083408367D
:105E1C00EEE7F8BD2DE9F041D0E900430546884690
:105E2C0004EBC307A7421AD041462046FFF7E1FD19
:105E3C00064608B90834F5E79CB1201DFEF789F930
:105E4C00D5E9003204F1080103EBC2022046FFF74A
:105E5C00AFFF6B68013B6B603046BDE8F0810026FC
:105E6C00FAE72646F8E7F7B5044651F8043B4768CD
:105E7C00009301A8FFF7D3FED4E901639E4212DB25
:105E8C000136002E2CDDF000FEF79EFF054608B310
:105E9C00D4E9001201EBC202FFF78AFF2068FEF77B
:105EAC009BFF2560A6602668626806EBC70506EBBB
:105EBC00C202294605F10800FFF77AFF35B1009BB5
:105ECC0046F8373001A9281DFFF7A9FE6368013396
:105EDC006360012501A8FEF73CF9284603B0F0BD2C
:105EEC000025DBE72DE9F04104468EB003A80D46F2
:105EFC00FFF78AF82368032B07D0042B48D003A89C
:105F0C00FFF790F80EB0BDE8F08104A8FFF70AFD8A
:105F1C00049B22891A806268049952F8083FC1F8E0
:105F2C0002305368C1F8063007A8049B069305A9F4
:105F3C00FFF775FE06A905F11800FFF794FF04465C
:105F4C0007A8FEF706F9202306938CB9334B344986
:105F5C0000933220234606AA0794FEF779FE049B91
:105F6C0021461888FEF700FD05A8FEF7F2F8C6E7F3
:105F7C002C4A009200232A49079306AA0120FEF717
:105F8C0067FE6B6A002BEFD0E96A04A89847EBE731
:105F9C0021892846FFF740FB06460028AFD004684D
:105FAC00D4E906314FF6FF72228003EBC10199420E
:105FBC0003D053F8080B4280F9E7D4E9037307EBDD
:105FCC00C308B84504D0381DFEF7C3F80837F8E706
:105FDC0000232361D4E9067307EBC308B84504D04A
:105FEC00381DFEF7B6F80837F8E70023E361638144
:105FFC00AB6A13B1296B3046984700232022CDE9B8
:10600C000623094A0092064906AA0120FEF720FE43
:10601C00314605F11800FFF7FDFE70E73E930D00C9
:10602C00DC920D0064930D0081930D0038B50D1EAC
:10603C000446006805DD54216943FEF7D5FE18B906
:10604C0038BDFEF7C9FE00202060A5600120F7E7EF
:10605C00F0B55426C1B0054632460C4601A80021C5
:10606C0002F006FF01A8FEF7E9FF03A8FFF7B9F954
:10607C000CA8FFF7B6F92A4601AB52F8100F51687D
:10608C00EA8903C32B78A9688DF854300CA8FFF764
:10609C0051F9AA89696803A8FFF74CF9A56935B1CC
:1060AC00E16901A8A84763690133636114E0E06802
:1060BC00A0B1D4E9042393420ED25A1C626106FBB0
:1060CC000300512201A902F0ABFED4E904329A423A
:1060DC0002D32846FEF73EFC41B0F0BD324601A982
:1060EC0016A802F09DFE324616A92BA8656802F090
:1060FC0097FEA3689D4205DB691C2046FFF796FFBF
:10610C000028E9D05427266862687D432E447A43E0
:10611C00521B3146F01902F091FE3A462BA930463B
:10612C0002F07EFE636801336360BCE78842F8B519
:10613C0004460D46164614D9904213D2A2F1080615
:10614C00751AA1F108072C44B74218D01CB131467E
:10615C002046FFF779FD301DFDF7FBFF083E083C9C
:10616C00F2E70CD0B5420AD01CB129462046FFF705
:10617C006BFD281DFDF7EDFF08350834F2E7F8BD7F
:10618C0070B50E1E054611DDF000FEF71DFE04462F
:10619C0058B1D5E9001201EBC202FFF7C7FF28681E
:1061AC00FEF71AFE2C60AE60012070BD0024F6E7ED
:1061BC002DE9F0410023C0E9003383600D464968A6
:1061CC009942044613DDFFF7DBFF80B1D5E900638C
:1061DC00276806EBC308B04507D01FB131463846D7
:1061EC00FFF732FD08360837F5E76B686360204629
:1061FC00BDE8F08138B50B689B7A05460C4633B97F
:10620C000846FEF7B1FE10B9236801229A72216884
:10621C0028460C31FFF7CCFF284638BD73B5044631
:10622C0045686846FFF710FDD4E90113994210DA6E
:10623C002368626803EBC50503EBC202294605F12E
:10624C000800FFF773FF8DB96368013363600126A3
:10625C0006E001312046FFF793FF06460028E7D100
:10626C0001A8FDF776FF304602B070BD694628469E
:10627C00FFF7EAFCE8E700002DE9F043DFF8808047
:10628C00DFF880908DB004460F4600262368B34299
:10629C0033D902A8FFF79CFA1C2561680298754354
:1062AC0029440431FEF7B3FF6368029A2B4402A918
:1062BC001B8B938263681D446B8BD382386800F10F
:1062CC000C0504A8FFF7C0FC284604A9FFF7A6FF9D
:1062DC00054605A8FDF73DFF55B92023CDE904354A
:1062EC00CDF800802B4604AA49463220FEF7B0FCBC
:1062FC0003A8FDF72EFF0136C8E70DB0BDE8F0830B
:10630C00A0930D00DC920D008842F8B504460D46B2
:10631C00164614D9904213D2A2F10806751AA1F1AF
:10632C0008072C44B74218D01CB131462046FFF761
:10633C007DFC301DFDF70DFF083E083CF2E70CD04C
:10634C00B5420AD01CB129462046FFF76FFC281D28
:10635C00FDF7FFFE08350834F2E7F8BD70B50E1EE8
:10636C00054611DDF000FEF72FFD044658B1D5E9C6
:10637C00001201EBC202FFF7C7FF2868FEF72CFDE5
:10638C002C60AE60012070BD0024F6E72DE9F041D1
:10639C000023C0E9003383600D46496899420446E6
:1063AC0013DDFFF7DBFF80B1D5E90063276806EB4F
:1063BC00C308B04507D01FB131463846FFF736FC4D
:1063CC0008360837F5E76B6863602046BDE8F08156
:1063DC0030B50B689B7A85B005460C462BB901A8E5
:1063EC00FFF708FF01A8FFF747FC2368DB7A3BB9EE
:1063FC00214601A8FFF72AFA10B923680122DA72A4
:10640C00216828461831FFF7C1FF284605B030BD7A
:10641C002DE9F04391B005460F460868496805928E
:10642C009846384B02934FF0000903AB08AC03C4F9
:10643C0083E80300CDE90699FFF724FB324B069362
:10644C00FFF720FB2968036807934A4602A8FEF76A
:10645C00DBFA08AE044638B12B684FF6FF721A808F
:10646C00204611B0BDE8F08339462846FFF7B2FA52
:10647C00FFF708FB2946076851F8043B08931837C7
:10648C0009A8FFF7CCFB31463846FFF7ECFC074672
:10649C0009A8FDF75EFE2023CDE9083497B91B4B04
:1064AC001B490093324623463220FEF7D1FB2B6862
:1064BC0021461888174CFEF757FA2B684FF6FF72D7
:1064CC001A80CDE7144B0093114923463246012024
:1064DC00FEF7BEFBB8F1000FC2D029463046FFF7DD
:1064EC0077FFDDE9085305EBC307AF4205D028461B
:1064FC000121FFF72FF90835F7E73046FFF7CEFB00
:10650C00AEE700BF01001800F15E0D00C5930D0051
:10651C00DC920D00FCFEFFFFE1930D0013B5044669
:10652C00CDE90032FFF7FEF9009B019900222046CD
:10653C00FFF76EFF204602B010BD73B504464568E8
:10654C006846FFF773FBD4E90113994210DA23680C
:10655C00626803EBC50503EBC202294605F108008E
:10656C00FFF7D2FE8DB9636801336360012606E044
:10657C0001312046FFF7F2FE06460028E7D101A8BC
:10658C00FDF7E7FD304602B070BD69462846FFF7BF
:10659C004DFBE8E72DE9F043DFF80481DFF80491C7
:1065AC008DB004460F4600262368B34275D902A865
:1065BC00FFF744F8029B22895A80636802982A25C7
:1065CC0075432B4414305B7E13F0020F1EBF10F882
:1065DC00103C43F0020300F8103C63682B445B7ED4
:1065EC005B0742BF10F8103C43F0040300F8103C6A
:1065FC0063682B445B7E190742BF10F8103C43F0D4
:10660C00080300F8103C63682B445B7EDA0642BF3B
:10661C0010F8103C43F0100300F8103C63682B4456
:10662C005B7E9B0642BF10F8103C43F0200300F841
:10663C00103C616829440431FEF7E9FD6368029A55
:10664C001D4402A9EB8B13812B8C53816B8C938192
:10665C00AB8CD381EB8C13822B8D5382386800F179
:10666C00180504A8FFF7E2FA284604A9FFF765FF0E
:10667C00054605A8FDF76DFD55B92023CDE9043578
:10668C00CDF800802B4604AA49463220FEF7E0FAEA
:10669C0003A8FDF75EFD013686E70DB0BDE8F0837B
:1066AC00FE930D00DC920D002DE9F04F1646A1B0C3
:1066BC0080460AA80D46FEF7A7FC3468237953B927
:1066CC0031464046FFF7B2FA0AA8FEF7ABFC40464B
:1066DC0021B0BDE8F08F2B68D3E9037307EBC3033C
:1066EC00039304F1280904F1140B039B9F4221D05E
:1066FC00D7F800A058460AF11401FEF794FDB8B182
:10670C000AF128014846FEF78EFD88B12368DAF8B5
:10671C000020534033F47F430AD12022CDE91523C6
:10672C00584A009215AA58493220FEF791FAC7E749
:10673C000837DAE74846FEF70FFD18B953494846C3
:10674C00FEF74CFD2B68D3E9007307EBC30B5F45D9
:10675C00BA4649466AD057F8080BFEF764FD002884
:10676C00F5D004F114073846FEF7F6FC68B9484B2F
:10677C0046491A88013292B21A8015A80123FEF7F5
:10678C00E1FC15A93846FEF71CFD2822002116A8AD
:10679C0002F06EFB3F4B1593394604A8FEF7EEFC56
:1067AC0004AB18AA0DF1200C18685968174603C7DA
:1067BC00083363453A46F7D11868386023798DF869
:1067CC005830DAF800309B8AADF87430E36B1793CD
:1067DC00314B0022A11D15A8CDE91E34FEF71EF980
:1067EC0000287FF46DAF012323702C6831460C34E4
:1067FC000DA8FFF71BFA20460DA9FFF79EFE0446D5
:10680C000EA8FDF7A6FC002C7FF45AAF2023CDE98F
:10681C000D34224B00930DAA234684E731464046A3
:10682C00FFF704FA0CA8FDF794FC4DE70BA8FEF754
:10683C00E9FF494615A8FEF7A1FC0B9A0023143278
:10684C0015A90120FEF79AF80028E7D12F680BA9AB
:10685C000DA8FFF7F9F938460DA9FFF7DFFC07463D
:10686C000EA8FDF776FC002FD8D02A685368126862
:10687C0003F10053013B0CA802EBC30AFDF769FCC2
:10688C006FE700BF2A940D00DC920D00E8940D0018
:10689C002CE6032001002C00D15A0D0055940D005C
:1068AC0010B5064C002320462360FEF7E9F820467D
:1068BC00034A0449BDE8104002F078B930E60320E1
:1068CC00E8DE0320394F0D0070470020704710B5EB
:1068DC001021044602F06FF9204610BD08B5FFF7F1
:1068EC00F6FF08BD10B58368044613B103220146B8
:1068FC009847204610BD30B500224FF69C740260BC
:10690C0084808D888C800C68858004600A6030BD22
:10691C0010B504460068FEF75FFA204610BD38B586
:10692C00C468F4B12378022B03D104F10C00FFF7F7
:10693C00EFFF656835B12846FFF7D4FF10212846D4
:10694C0002F039F9A56835B12846FFF7CBFF1021C5
:10695C00284602F030F920461421BDE8384002F0F8
:10696C002AB938BD73B50E46044656F8043B00935D
:10697C000D4601A83146FFF752F9019A009B62605F
:10698C00236001A8002301930093FDF7E2FB30463E
:10699C00FDF7DFFB2846082102F00DF9204602B076
:1069AC0070BD13B50B460246D0E900016C4684E875
:1069BC00030093E8030082E8030094E8030083E8F3
:1069CC00030002B010BD826810B50AB902F0F7F8E6
:1069DC00BDE81040C368184708B5006800F1100105
:1069EC00FFF7F1FF08BD826810B50AB902F0E7F8AD
:1069FC00BDE81040C368184708B5006800F11001E5
:106A0C00FFF7F1FF08BD000038B500230446036012
:106A1C0010200D46FDF737FB28B10123C0E90133E7
:106A2C00024B0360C5602060204638BD10950D00F8
:106A3C0038B5002383608B6804460D462BB10222C7
:106A4C009847EB68E360AB68A360204638BD000054
:106A5C00F0B589B004686846FFF74DFF4FF00203AC
:106A6C00D4E84F2F002A03D1C4E8413F0029F7D1C5
:106A7C0025D104F10C0569462846FFF73CFFBFF30E
:106A8C005B8F01236370002004F10803BFF35B8F5D
:106A9C0053E8006F43E80002002AF9D1BFF35B8F83
:106AAC006EB1FEF705F978B129463046FFF78BFF3A
:106ABC003046FFF717FF1021304602F07CF868468D
:106ACC00FFF726FF09B0F0BD314602A8FFF7B0FF73
:106ADC00E068B4F9105008B102F020FA06901020CA
:106AEC00ADF81C50FDF7CFFA0546E8B100278760DA
:106AFC001820FDF7C8FA044688B10146876002A841
:106B0C00FFF74FFF049BA268A360059B049206A9A4
:106B1C00E268E36004F110000592FFF7ECFE084B0D
:106B2C00EB60084B2C60AB6006A8FFF7F1FE02A8E7
:106B3C00FFF7D8FE002229460348FEF7C1F8B7E755
:106B4C00E5690D007D6C0D004B4E0D002DE9F047F5
:106B5C008AB005469DF848900C4617469846FEF7B5
:106B6C00CBF807AE824638BB4FF62E73059005A9BD
:106B7C003046ADF81830FFF7BEFE1420FDF783FA4F
:106B8C00044648B1022303700123C0E901AA4370F3
:106B9C0031460C30FFF7AFFE2846214640F8044B37
:106BAC00FFF732FF3046FFF7B3FE05A8FFF7B0FE44
:106BBC0028460AB0BDE8F0870C234FF0000A1420D9
:106BCC00CDE908AA0793FDF75EFA014628B1C0E9A2
:106BDC0001AA80F800A080F801A004A80391FFF797
:106BEC0013FF224B08930820FDF74DFA824628B17B
:106BFC00039B40F8043B04A9FFF711F800965FFAD9
:106C0C0089F3424639462046CDF824A0FEF77CF89D
:106C1C00B8B9039B5B7803F0FF0293B94FF69C73F2
:106C2C0005A903A80592ADF81830FFF711FF05A8C8
:106C3C00FFF76EFE05A80999FFF794FE06A8FDF76D
:106C4C0088FA039B059304A906A8FEF7E8FF059BA9
:106C5C00069A2B606A60002306A806930593FDF73D
:106C6C0078FA04A8FDF775FAA2E700BF416D0D0094
:106C7C00022AF8B5054607D0032A18D0012A01D1FB
:106C8C000B6803600020F8BD18200E68FDF7FBF9B7
:106C9C00044650B13146FFF7CBFE3069B6F914709B
:106CAC0008B102F03BF92061A7822C60EAE7046886
:106CBC00002CE7D004F11000FFF72AFE2046FFF766
:106CCC0011FE1821204601F076FFDBE738B50023D2
:106CDC0083608B6804460D462BB102229847EB6803
:106CEC00E360AB68A360204638BD022A70B5044649
:106CFC0007D0032A12D0012A01D10B6803600020AF
:106D0C0070BD14200E68FDF7BEF9054620B1314662
:106D1C00FFF7DCFF337C2B742560F0E70468002C54
:106D2C00EDD02046FFF7DEFD1421204601F043FF95
:106D3C00E5E70000F0B589B004460D4601A8114600
:106D4C00FFF710FEA4B124B21DB1284602F0E6F8FC
:106D5C00054601A803A90395ADF81040FFF778FE8E
:106D6C0003A8FFF7D5FD02A8FDF7F3F909B0F0BDB4
:106D7C00019D0123D5E84F2F002A03D1C5E8413FDF
:106D8C000029F7D1EFD12B73BFF35B8F6B702B1DE9
:106D9C00BFF35B8F53E8006F43E80042002AF9D140
:106DAC00BFF35B8F002EDED02046FDF781FF074638
:106DBC0060B105F10C013046FFF715FE3046FFF7C8
:106DCC0091FD1021304601F0F6FECCE7314603A8C8
:106DDC00FFF77CFF2B7B8DF81C301020FDF753F94F
:106DEC000546D0B187601420FDF74DF9044678B103
:106DFC008760014603A8FFF7D4FD059BA268A3603A
:106E0C00069B0592E268E3609DF81C3006922374A1
:106E1C00064BEB60064B2C60AB6003A8FFF762FDE2
:106E2C00002229460348FDF74BFFC7E7056A0D0012
:106E3C00F76C0D004B4E0D00002240681146FDF71B
:106E4C00ABBF002240681146FDF7B6BF4068002278
:106E5C00FDF7AABF4068002281F00101FDF794BF45
:106E6C00002340681A461946FDF786BF0023406888
:106E7C001A461946FDF778BF002240681146FDF707
:106E8C006BBF002240681146FDF756BF40680022D8
:106E9C000221FDF759BF002340681A46FDF744BF95
:106EAC00024B03225A60024A1A60704738E60320EC
:106EBC002C950D00704710B51821044601F07BFE8F
:106ECC00204610BDF0B5037D062B8DB00E4600F1AB
:106EDC0004074FF0000412D000F1080515F8011D4D
:106EEC000A22304601F0CDFAAF42044419D0002CEE
:106EFC00F4D02E21304601F0B5FA0444EEE72F23EE
:106F0C006A4639460A208DF80040FDF7F9FD6846BF
:106F1C0002F021F833680246DB6869463046984730
:106F2C00044620460DB0F0BD10B5054B04461122A9
:106F3C0040F8043B002101F09BFF204610BD00BF30
:106F4C0060950D000346074A10B543F8042B01F178
:106F5C00100251F8044B43F8044B9142F9D10A78D2
:106F6C001A7010BD60950D0010B59DF8084044EAEC
:106F7C00032343EA024242EA0161042341600375A0
:106F8C0010BD13B5CB7800938B784A780978FFF74E
:106F9C00EBFF02B010BD00F11003012213F8101C1E
:106FAC000129184608D153F8041C02EB4102013A9E
:106FBC0003F11003F2D17047022904BF53F8041CEB
:106FCC005218F4E70EB4F0B588B000AF07F13405F1
:106FDC00102155F8042B7A6004462B467818FD6076
:106FEC00FDF70AFF0F287A681AD900F1080323F07D
:106FFC0007036E46ADEB030D411C2B466846FD6046
:10700C00FDF7FAFE021E04DD236869469B682046E4
:10701C009847B5462037BD46BDE8F04003B07047F1
:10702C000028F7D0236802469B6807F11001204620
:10703C009847EFE710B5036804469B689847A36828
:10704C00013BA3602BB923682046DB68BDE81040E8
:10705C00184710BD07B503688DF807109B6801220F
:10706C000DF10701984703B05DF804FB38B50B68C8
:10707C0003604D6843689D4204460CD015B16B68A3
:10708C0001336B60606828B14368013B43600BB906
:10709C00FFF7D0FF6560204638BD0B461146002235
:1070AC0010B5C0E90022044683600BB9204610BD20
:1070BC00FFF7DCFFFAE78368EBB11A78032A1AD8DA
:1070CC00DFE802F00417021B0520704702685B68BA
:1070DC005268D05C2D2812D0A0F13003092B0ED9A8
:1070EC0074280ED066280CD0A0F16E03584258417B
:1070FC00704706207047002070470420704703201B
:10710C0070470220704710B50446FFF7D4FF0228E1
:10711C000ED0C31EDBB2012B14D82268A3685068B2
:10712C005B68BDE810400A220021184401F0C8BF7A
:10713C002268A36852685B68D05CA0F17403584263
:10714C00584110BD0020FCE738B50023C0E90033DE
:10715C0004460E48C4E90203A9B10B78032B06D0F0
:10716C008BB9136858684B68C35C6E2B07D01368D7
:10717C004D6858688B6828445B1BA060E36011461F
:10718C002046FFF773FF204638BD00BFCB950D009E
:10719C0038B500250B46C0E90055C0E90255C0E9D9
:1071AC000455044611464BB11A78012A06D103F155
:1071BC001002DB6882604361FFF758FF204638BD40
:1071CC0010B54369044663B18068E060013B103040
:1071DC00A0602061636113B1FFF7DDFEA0600120A8
:1071EC0000E0184610BD10B57D210446FFF732FFB4
:1071FC0001232371204610BD08B50379012B02D061
:10720C00022B04D008BD2C21FFF724FFFAE73A210A
:10721C00FAE710B50446FFF7EFFF20467B21FFF796
:10722C0019FF00232371204610BD000013B504463E
:10723C000191FFF7E1FF2368019ADB6803492046BF
:10724C00984701232046237102B010BD6C950D00A8
:10725C0013B504460191FFF7CFFF2368019ADB6851
:10726C0003492046984701232046237102B010BDE4
:10727C006F950D002DE9F0410D4617462221DFF8E0
:10728C00A08004462F44FFF7E5FE2946BD422A465E
:10729C0038D015F8016B222E03D05C2E01D01F2E96
:1072AC00F4D82368521A9B68204698475C212046E4
:1072BC00FFF7D0FE0D2E0AD8072E1CD9A6F1080315
:1072CC00052B18D8DFE803F00D0F11171315222E1C
:1072DC0001D05C2E0FD131462046FFF7BBFE29466C
:1072EC00D4E76221F8E77421F6E76E21F4E7662112
:1072FC00F2E77221F0E723683246DB68414620460C
:10730C009847ECE78D4204D023686A1A9B682046A4
:10731C00984722212046FFF79DFEBDE8F08100BF73
:10732C0072950D0013B50446CDE90021FFF764FFFB
:10733C002046DDE90021FFF79DFF02232046237143
:10734C0002B010BD13B50446CDE90021FFF754FF80
:10735C002046DDE90021FFF78DFF01232046237134
:10736C0002B010BD80680368DB6818477047084698
:10737C0011B10B685B6818477047704770477047CE
:10738C0038B504460D4600682E2101F0AAFD23688D
:10739C00C31A2B6023B1037803B10130236820603A
:1073AC00184638BD10B50C21044601F004FC2046EB
:1073BC0010BD10B50421044601F0FDFB204610BDA4
:1073CC0010B50421044601F0F6FB204610BD08B5AB
:1073DC0001F091FDB0FA80F0400908BD10B50C46E3
:1073EC0001F0EAFA844210D001F05AFA844205D135
:1073FC0001F056FABDE8104001F04FBA2CB12368E9
:10740C0020465B68BDE81040184710BD13B5044614
:10741C000846019101F09FFD01990246204602B0F9
:10742C00BDE81040FFF78EBF13B504460846019126
:10743C0001F091FD23680199DB680246204602B0F9
:10744C00BDE81040184707B503688DF80710DB68D6
:10745C0001220DF10701984703B05DF804FB000011
:10746C002DE9F74FD0E900954FF0140808FB05F50E
:10747C000093AB10184D17465D434C46002D23DD91
:10748C006E1008FB06F004EB000A3A46BAF804B09A
:10749C00205801915F4528BF5A4601F064FD0199BF
:1074AC00012378B95F4503D1009A13703546E5E79F
:1074BC008CBF012000200028F8D0AE1B0AF1140468
:1074CC00013EF3E7C00FF6E7A4EB09040248A41051
:1074DC00604303B0BDE8F08FCDCCCCCC7FB5036955
:1074EC00067E01910BB301B3002500F10C0403954A
:1074FC0003A901A8FFF744FF0146B0B10DF10B033E
:10750C00039A8DF80B502046FFF7AAFF9DF80B301D
:10751C005BB12468142303FB004000F10804B0F9AC
:10752C000630002BA8BFDEB2E2E7304604B070BDD7
:10753C0010B50A4C2378BFF35B8FDB070BD42046C6
:10754C00FCF7B0FD38B12046FCF7B1FD044A054903
:10755C00054801F02BFB044810BD00BF44E6032096
:10756C00E8DE032089730D0078DE032010B50A4C89
:10757C002378BFF35B8FDB070BD42046FCF792FD1F
:10758C0038B12046FCF793FD044A0549054801F043
:10759C000DFB044810BD00BF48E60320E8DE0320C5
:1075AC0087730D007CDE032038B500250446C0E946
:1075BC000055C0E904558560856140F8245FFDF7EE
:1075CC005FFAFFF7B5FFE061FFF7D0FF257320628C
:1075DC00204638BD10B50B4C2378BFF35B8FDB070F
:1075EC000ED42046FCF75EFD50B10748FFF7DCFFD8
:1075FC002046FCF75CFD054A0549034801F0D6FA24
:10760C00014810BD40E6032050E60320E8DE0320CD
:10761C00757A0D00024A034903480023FDF730BB7D
:10762C0051790D00DD780D005D780D0000231A46B0
:10763C0019461846FDF724BB37B50D6951F8043BC4
:10764C000093044601A8FEF7EAFA6A46294620464A
:10765C00FFF723FD01A8FCF77CFD204603B030BDED
:10766C0037B58D6851F8043B0093044601A8FEF72A
:10767C00D6FA6A4629462046FFF78AFD01A8FCF790
:10768C0068FD204603B030BD37B5CD6851F8043BDA
:10769C000093044601A8FEF7C2FA6A462946204622
:1076AC00FFF752FD01A8FCF754FD204603B030BD96
:1076BC0070B58AB00D46014604A8FFF7D1FF144EF1
:1076CC0004A8FFF77DFDE8B104A96846FFF7DCFFCD
:1076DC0002983146FFF77BFE044610B12C1E18BFF2
:1076EC00012401A8FCF735FD002CE9D004A968465B
:1076FC00FFF7A2FF6846FFF706FD286001A8FCF71C
:10770C0028FDDDE705A8FCF724FD0AB070BD00BF1D
:10771C0078950D0037B50C4620461249154601F0F8
:10772C00EAFB48B901F048F94FF4165101F034F96D
:10773C0001F042F903B030BD0B49204601F0DBFBF0
:10774C0070B94FF4165301A928460193FFF7B0FF07
:10775C0001F0A6F8019901F09DF801F0A1F8E9E714
:10776C000020E7E78C910D007D950D0070B5D0E9F8
:10777C0000531426044606FB0356AE4205D005F111
:10778C000800FFF7F3FF1435F7E72068FDF724FB3B
:10779C00204670BD70B5D0E90053044605EB0316C6
:1077AC00AE4204D0284600F0DBFE1035F8E7206826
:1077BC00FDF712FB204670BD10B504460C30FFF7E8
:1077CC00D5FF2046FFF7E6FF204610BD10B5044B51
:1077DC00044640F8043BFFF7EFFF204610BD00BF06
:1077EC00B4920D0010B50446FFF7F0FF204624219B
:1077FC0001F0E1F9204610BD10B5034B03600446BF
:10780C00FFF7E4FF204610BD1C960D0010B5044692
:10781C00FFF7F2FF2046242101F0CDF9204610BDE0
:10782C000022C0E9002210B582600C6804604C682C
:10783C0044608C680A604A6084608A6010BD10B530
:10784C00036804461868FDF733F9204610BD0000A4
:10785C002DE9F04F87B0804603931C4B5B68C3F354
:10786C000803894616466BB9FFF7B4FE044600F1CF
:10787C002403406A0593FDF713F9237B2BB105A86C
:10788C00FFF7DDFF07B0BDE8F08F01232373D4E9C8
:10789C0000535FFA89F905EB830AAA4512D055F813
:1078AC00047B3146381DFFF719FE8145F5D33B6843
:1078BC00039A0092D3F808B04A46334641463846FC
:1078CC00D847EAE700232373D9E700BF00ED00E0B7
:1078DC002DE9F74F9B461A4B5B68C3F308038046B0
:1078EC00894616466BB9FFF775FE044600F1240372
:1078FC00406A0193FDF7D4F8237B2BB101A8FFF765
:10790C009EFF03B0BDE8F08F01232373D4E900532D
:10791C00F6B205EB830A55450ED055F8047B594653
:10792C00381DFFF7DBFD8642F5D33B684A46DB6822
:10793C00414638469847EEE700232373DEE700BF45
:10794C0000ED00E02DE9F341164B5B68C3F308032F
:10795C0005460F461BBBFFF73DFE00F12403044612
:10796C00406A0193FDF79CF8D4E90063462406EBCA
:10797C008308B04509D101A8FFF761FFA542B4BF48
:10798C000020012002B0BDE8F08156F8040B394606
:10799C000430FFF7A3FD8442A8BF0446E9E70020AA
:1079AC00F0E700BF00ED00E070B50446D0E900023E
:1079BC000B4600EB8202824207D001461D6851F84B
:1079CC00046BAE4203D00846F5E7002070BD521A96
:1079DC0001F034FA6368013B63600120F6E71FB5E0
:1079EC0000F124030446406A01910393FDF758F813
:1079FC0001A92046FFF7D8FF18B163680BB9FFF750
:107A0C0015FE03A8FFF71BFF04B010BD70B5D0E93D
:107A1C0004561823044603FB0656AE4215D005F156
:107A2C0010012046FFF7C0FF63680BB9FFF7FEFD9E
:107A3C00E06929690368DB689847696919B1206AAC
:107A4C000368DB6898471835E7E7D4E90453182630
:107A5C0006FB0356AE4204D0284600F081FD1835D3
:107A6C00F8E70023636170BD73B50446FFF7DEFDD4
:107A7C0004F12403606A0193FDF712F82046FFF726
:107A8C00C5FF01A8FFF7DBFE606A08B1FDF700F83F
:107A9C00D4E90453182606FB0356AE4204D02846FC
:107AAC0000F05EFD1835F8E72069FDF795F92068C0
:107ABC00FDF792F9204602B070BD8842F8B5064633
:107ACC000C46154627D9904226D2A2F114056C1A01
:107ADC00A1F1140704440026AF423DD0A4B12B6899
:107AEC002360AB88A380B5F90630E380C4E9026655
:107AFC002661AB68A360AE60E368EA68E260EB60A5
:107B0C0023692A6922612B6105F10800FFF72EFE1B
:107B1C00143D143CE0E71FD00027AC421CD0A6B1AA
:107B2C0023683360A388B380B4F90630F380C6E9C8
:107B3C0002773761A368B360A760F368E268F2600C
:107B4C00E360336922693261236104F10800FFF7B5
:107B5C000DFE14341436E0E7F8BDF8B5D0E9015346
:107B6C009D4204460E4617460DDB0135002D00687C
:107B7C0004DDA900FDF738F918B9F8BDFDF72CF9AB
:107B8C0000202060A5602568626805EB86019200E4
:107B9C00A2EB8602081D01F051F945F826706368C6
:107BAC00013363600120E8E737B500F12403044694
:107BBC00406A01930D46FCF773FFD4E9003103EBE7
:107BCC00810083421A460BD01268AA4203F10403C7
:107BDC00F7D101A8FFF733FE0025284603B030BDCE
:107BEC002A462046FFF7B9FF05460028F1D0636806
:107BFC00012B01D1FFF70EFD01A8FFF720FEECE7EA
:107C0C008842F8B504460D46164614D9904213D254
:107C1C00A2F11006751AA1F110072C44B74218D026
:107C2C001CB13146204600F017FD304600F098FCA0
:107C3C00103E103CF2E70CD0B5420AD01CB12946DC
:107C4C00204600F009FD284600F08AFC103510345F
:107C5C00F2E7F8BD70B50E1E054611DD3001FDF7DB
:107C6C00B3F8044658B1D5E9001201EB0212FFF744
:107C7C00C7FF2868FDF7B0F82C60AE60012070BD1E
:107C8C000024F6E72DE9F04F914697B000230391BD
:107C9C00D9F804100C9346229942C0E90033C0E98C
:107CAC000233C0E90433CDE90A330446027623DCFF
:107CBC00D9E90057142303FB0757AF423BD02946A1
:107CCC000DA800F0C9FC0DA911A80B9E00F0C4FC76
:107CDC00DDE90B1399421BDA0A9B0B9A03EB061690
:107CEC0003EB0212314606F11000FFF789FFEEB9E3
:107CFC000B9B01330B9311E00AA8FFF7ABFF002895
:107D0C00D6D10AA8FFF746FD204617B0BDE8F08F84
:107D1C0001310AA8FFF79EFF0028DDD111A800F061
:107D2C001FFC0DA800F01CFC1435C6E711A9304649
:107D3C0000F092FCDCE70026CDE90D660F96374685
:107D4C004FF0140ADDE90A239E4280F2978033013A
:107D5C00D35808930BB90136F4E70AFB06F30997DD
:107D6C0002930DAD09A908A8FFF70AFB834600286A
:107D7C00F1D00146099A8DF81F700DF11F032846AA
:107D8C00FFF76EFB9DF81F800190B8F1000F66D1D4
:107D9C00BDF82430ADF84830CDE913884FF6FF73A9
:107DAC00CDF844B0ADF84A30CDF85480D5E9013265
:107DBC0093421ADB03F1010BBBF1000F4ADD0AFB06
:107DCC000BF0FDF701F80490002845D0D5E900121E
:107DDC000AFB0212FFF771FE049B28680493FCF760
:107DEC00FBFF049B2B60C5F808B0019BD5F800B0D5
:107DFC006A680AFB03F30BEB030101F114000AFBA5
:107E0C0002B204910593FFF758FE0499A9B1059BA2
:107E1C00119A4BF80320BDF848308B80BDF94A30DD
:107E2C00CB80C1E902770F61139B8B60149B139776
:107E3C00CB60159B14970B6115976B6801336B60C6
:107E4C0013A8FFF793FCB8F1000F08D00DA8FFF7AB
:107E5C008DFC56E74346C0E74FF00108F0E7019B65
:107E6C002D680AFB0355089B1B782BB9D9F80030F9
:107E7C00029A13441B7CEB80083573E7216822605F
:107E8C0062686360A3680B920C9A0C93E368A2601F
:107E9C000D9A0D932369E2600E9A0E936369226129
:107EAC000F9A0F93039B0A9162612376CEE7000031
:107EBC007FB50546094B45F8043B04460E4601A820
:107ECC001146FCF70EFC01AA31462846FFF7DAFEF4
:107EDC0001A8FCF7A3FB204604B070BDB4920D00C2
:107EEC00F0B50F4687B026490C9C384616461D4601
:107EFC0001F001F800BBE4B129466846FFF790FC9D
:107F0C002049242000F059FE054670B1694603A8AB
:107F1C00FCF7E7FB03AA31462846FFF7C9FF03A885
:107F2C00FCF77CFB184B2C622B606846FCF776FB4D
:107F3C002C46204607B0F0BD1449384600F0DBFF54
:107F4C00E0B9002CF5D029466846FFF769FC0D49CD
:107F5C00242000F032FE05460028E6D0694603A82E
:107F6C00FCF7BFFB03AA31462846FFF7A1FF03A885
:107F7C00FCF754FB064B2B602C62D6E70024D8E7A9
:107F8C0085950D0040970D001C960D0089950D00F0
:107F9C0004960D00014B024A1A6070474CE6032010
:107FAC009A950D002DE9F047089DD0F820900446D5
:107FBC000E461746984600F0FFFC81454ED02B79B3
:107FCC00190705D56B69564A206A002100F077FA2B
:107FDC00B8F1000F0DD05B212046FFF734FA414673
:107FEC002046FFF721FA23684E49DB68022220461F
:107FFC0098472B79DA0724D5D5F808802F214046ED
:10800C0000F0D0FF08B100F1010841462046FFF70F
:10801C000BFA2B799B0709D53A212046FFF713FA67
:10802C00EB68414A206A002100F049FA2A7923685A
:10803C0012F0040FDB6814BF3C493D490222204674
:10804C0098472B7958071DD529690B461A4613F802
:10805C00010B60B1202808D11946F7E7354800F02C
:10806C0060F90028ABD0BDE8F0872828EED1236852
:10807C00521ADB682046984723682F49DB68042294
:10808C002046984700213846FCF7F2FD0146204671
:10809C00FFF7CAF923682649DB6802222046984775
:1080AC001EB131462046FFF7BFF92B7913F0300F84
:1080BC002DD023682149DB680222204698472B7972
:1080CC00D9060BD523681E49DB6807222046984742
:1080DC00AB691C4A206A002100F0F1F92B799A0651
:1080EC0011D5DB0605D523681049DB680222204632
:1080FC00984723681449DB6820460A229847E969A7
:10810C002046FFF791F95D212046FFF79CF9236883
:10811C000E49DB6820460222BDE8F047184700BF35
:10812C009E950D00A5950D006C950D00A8950D0064
:10813C00AD950D0078E60320AB950D00B0950D00C4
:10814C00B3950D00BB950D00BE950D00C9950D00A6
:10815C002DE9F04385B0D0F820900C9C05460F46D5
:10816C0090461E4600F028FC814505D1494800F098
:10817C00D8F8002840F08A802B6A474A01924FF0C9
:10818C00000901A803938DF80890FFF742F84946BF
:10819C004046FCF76DFD41498046012201A8FFF7DE
:1081AC00C1F84146FFF732F93FB13D49012201A820
:1081BC00FFF7B8F83946FFF729F93EB139490122E2
:1081CC0001A8FFF7AFF83146FFF720F92379DF0755
:1081DC000ED5A6682F21304600F0E4FE00B1461CF7
:1081EC003149012201A8FFF79DF83146FFF70EF93E
:1081FC0023799E0707D52D49022201A8FFF792F893
:10820C00E168FFF713F82379580714D5266933462C
:10821C001F4613F8012B2AB1202A01D11E46F7E77D
:10822C00282AF5D12249022201A8FFF77BF8BA1BB4
:10823C003146FFF787F82379190707D51D49012225
:10824C0001A8FFF76FF86169FFF702F82379DA06E6
:10825C0008D5042218490DEB0200FFF763F8A16959
:10826C00FEF7E4FF23799B0607D51449062201A8E3
:10827C00FFF758F8E169FFF7C9F801A8FEF7B3FF5B
:10828C00286A0F4903680222DB68984705B0BDE8ED
:10829C00F08300BF78E60320EC950D0091910D0062
:1082AC00CC950D00CE950D00D0950D00D2950D00FE
:1082BC00D5950D0033920D00D8950D00DD950D0070
:1082CC00C9950D00002340681A46FCF72DBD406887
:1082DC0000220221FCF738BD002240681146FCF751
:1082EC002BBD002240681146FCF736BD00234068C8
:1082FC001A461946FCF738BD002340681A46194641
:10830C00FCF73ABD4068002281F00101FCF73CBD4E
:10831C0040680022FCF748BD002240681146FCF77B
:10832C004BBD002240681146FCF736BD2DE9F043E9
:10833C00002495B016460D460746FEF7F5FD21467E
:10834C0018220EA8009400F093FD4023CDE90C34C4
:10835C0021466B460CAA3046FCF7E2FB044600288B
:10836C0046D1024601216868FCF7F6FC02218046E2
:10837C0022466868FCF7F0FC009E81462146002EE0
:10838C0036D0002934D17368022B03D00A2B0BD0C2
:10839C00F669F4E7B8F1000F04D07169384604317E
:1083AC00FEF7EFFD4146F3E7B9F1000F01D1494665
:1083BC00EEE77469102201A800F05AFD06238DF82F
:1083CC00143001AD04F108031834186859682A46B2
:1083DC0003C20833A3421546F7D101A906A807AD7D
:1083EC00FEF7B0FD0FCD3C1D0FC42B682370DEE7EC
:1083FC000098FCF78DFB384615B0BDE8F083000003
:10840C00024B034A1A6000225A60704778E6032038
:10841C0064960D00F8B506460D468F180024BD4233
:10842C000CD0336815F8011B9B6830469847031E27
:10843C0001DB1C44F3E7002C08BF1C462046F8BDAA
:10844C0013B50446084659B1019100F084FD236828
:10845C000199DB680246204602B0BDE8104018477F
:10846C0002B010BD03689B68184738B50D2105464E
:10847C00FFF7F8FF0A2104462846FFF7F3FF2044D4
:10848C0038BD30B58BB000238DF82430012A98BF4D
:10849C000A2209AC0D46B1FBF2F101FB125303F0B9
:1084AC00FF03092B94BF30333733DBB2AA4204F8F5
:1084BC00013DEFD92146FFF7C3FF0BB030BD0CB423
:1084CC002DE9F04188B000AF07F13804054654F8A7
:1084DC00042B7A600E462346142107F10C00BC6075
:1084EC00FCF78AFC13287A6811D807F10C0128468E
:1084FC00FFF7A6FF04461EB12846FFF7B6FF04445B
:10850C0020462037BD46BDE8F04102B0704700F16F
:10851C00080323F00703E846ADEB030D411C23468B
:10852C006846BC60FCF768FC69462846FFF788FF84
:10853C000446C546DFE710B50446FEF7D3F92046DE
:10854C0010BD00000348044A04490023836000F076
:10855C002DBB00BF80E60320E8DE032043850D0021
:10856C0010B504460068FCF737FC204610BD10B56A
:10857C000446006808B1FCF72FFC0023C4E9013362
:10858C00236010BD38B504460D4600680131FCF778
:10859C002BFC10B1C4E90005012038BD10B50368EF
:1085AC00044623B143688B4201D3012010BD204601
:1085BC00FFF7E8FF0028F9D0A368002BF5D122685B
:1085CC001370F2E737B50D46114601920446FFF7DA
:1085DC00E5FF019A28B92046FFF7C9FF204603B0F2
:1085EC0030BDA2602946206800F01AFC2268A368FE
:1085FC000021D154F2E7002313B5C0E9003304463F
:10860C008360037341B10846019100F0A4FC019909
:10861C0002462046FFF7D6FF204602B010BD38B503
:10862C00054600680C4668B16A688B689A4207D3A5
:10863C00096800F06AFCA368AB600023A36038BD36
:10864C00FCF7CAFB23682B6063686B60A368AB60A4
:10865C000023C4E90033F1E710B50023C0E900336F
:10866C00044683600373FFF7DAFF204610BD88428F
:10867C0010B5044605D00B682BB18A681946FFF774
:10868C00A1FF204610BDFFF772FFFAE710B50023DB
:10869C000446C0E9003383600373FFF7E8FF20460C
:1086AC0010BD13B5044659B10846019100F053FCB6
:1086BC00019902462046FFF785FF204602B010BD07
:1086CC00FFF755FFF9E770B505460E4609B90020CE
:1086DC0070BD6AB1846814442146FFF75FFF00281F
:1086EC00F5D02868AB683146184400F00EFCAC603D
:1086FC000120EDE707B500238DF80410012201A934
:10870C008DF80530FFF7DFFF03B05DF804FB02685E
:10871C000B46096862B141B9806860B11078704746
:10872C00986840B1097848427047104600F0E3BBA6
:10873C000029F5D10846704708B582688B689A42C3
:10874C0005D1FFF7E4FFB0FA80F0400908BD002026
:10875C00FCE708B582683AB921B10878B0FA80F024
:10876C00400900E0012008BD006809B90078F5E770
:10877C0000F0C1FBF2E710B50446006818B1FCF735
:10878C002BFB0023236010BD10B50446FFF7F3FF4D
:10879C00204610BD10B5094B094C022200201A606E
:1087AC00084B2060A080A071A360FCF771FA2046F2
:1087BC00054A0649BDE8104000F0F8B99CE60320D4
:1087CC0090E603200000FFFFE8DE032095870D00F4
:1087DC00024B1A68024B1A60704700BF80DE032000
:1087EC00A0E6032070474174704708B5007CFCF785
:1087FC00D7F920EAE07008BD08B5007CFCF7B0F9A9
:10880C0020EAE07008BD08B5007CFCF7B9F940EA35
:10881C00E07008BD08B5007CFCF7AAF940EAE070EE
:10882C0008BD007CFCF7B4B937B5457C04462DB1C6
:10883C00207C03B0BDE83040FCF78AB9007C019184
:10884C00FCF7AEF900280199F2DC284603B030BDE4
:10885C0010B51421044600F0AEF9204610BD0000FE
:10886C0010B54FF0000C0446084611464FF47A72CE
:10887C00C4E901C2044A22600122207462741A46BF
:10888C00FCF756F9204610BDB4960D00007C002371
:10889C00FCF78EB90022FFF7F9BF007CFCF750B94A
:1088AC0013B50E4C2178BFF35B8F11F0010112D17F
:1088BC0020460191FBF7F6FB019960B1084A094B80
:1088CC000948FFF7CDFF2046FBF7F1FB074A0849A3
:1088DC00054800F06BF9044802B010BDA4E6032073
:1088EC00A8E603202CE70320B0E70320E8DE0320F2
:1088FC00F1870D0041747047704708B50021007C6A
:10890C00FCF786F940EAE07008BD08B50121007C4F
:10891C00FCF77EF940EAE07008BD08B5007CFCF776
:10892C006FF920EAE07008BD08B5007CFCF760F92F
:10893C0020EAE07008BD13B50446007C0191FCF7F9
:10894C005FF90028019901DC607C20B1207CFCF7E8
:10895C0067F920EAE07002B010BD007CFCF768B942
:10896C0010B51421044600F026F9204610BD000075
:10897C0010B54FF47A73044608460021C4E901137C
:10898C00044B23600123207463741146FCF718F91F
:10899C00204610BDE4960D00007C0022FCF718B9AF
:1089AC00007CFCF71DB910B514220446002100F020
:1089BC005FFA204610BD000010B5104C88B003A81B
:1089CC00FFF7F1FF2178BFF35B8F11F0010111D19B
:1089DC0020460191FBF766FB019958B103AA0848A0
:1089EC00FFF7C6FF2046FBF762FB064A0649044820
:1089FC0000F0DCF8024808B010BD00BFC4E703204B
:108A0C00C8E70320E8DE032005890D00002240683A
:108A1C001146FCF7A1B9002240681146FCF7BCB91D
:108A2C00002240681146FCF7C7B940680022FCF7E9
:108A3C00BBB94068002281F00101FCF7A5B9002305
:108A4C0040681A461946FCF797B9002340681A4645
:108A5C001946FCF789B9002240681146FCF76CB93D
:108A6C00406800220221FCF76FB9002340681A46C7
:108A7C00FCF75AB9024B04225A60024A1A6070473A
:108A8C00DCE7032014970D00014B1860704700BF02
:108A9C0084DE032008B50B4B43B1FFF78DFF036851
:108AAC001B699847002801DDAFF30080064B43B1EA
:108ABC00FFF7F6FE03681B699847002801DDAFF34A
:108ACC00008008BD000000000000000008B5FFF7A2
:108ADC00E1FFFCF705F8014B186008BDECE703203B
:108AEC000248034A0349121A00F09AB900F4032011
:108AFC0004F4032060990D0007B5002300931A4677
:108B0C006FF07701FCF7EEF803B05DF804FB0000A2
:108B1C0007B543880A2B08D0502B0BD1094B1B6887
:108B2C004BB103B05DF804EB1847FFF7E5FF03B05A
:108B3C005DF804FB002300931A466FF07701FCF7F5
:108B4C00D1F8F4E7E8E7032038B5124C1248134D7E
:108B5C000021FCF769F92368AB42114B0CBF0122D1
:108B6C0000221A7002D0FFF7BBFF2560FBF7A8FFAD
:108B7C00044600F085F90B4B13B12046AFF300808F
:108B8C0000210848FCF7C8F8BDE838400648002129
:108B9C00FCF79EB800F40320958A0D001E1C279A42
:108BAC00E4E70320000000001D8B0D000B4601467E
:108BBC00184600F019B9FBF768BAFBF764BA08B5A8
:108BCC00FCF722F9014900F0F9B800BF5C970D00E1
:108BDC007FB500241023CDE90234036800949E690C
:108BEC008DF8044015466B461268B0479DF804306A
:108BFC0003F00603062B03BF009B2B6001202046CD
:108C0C0004B070BD0098904214BF0120062070473C
:108C1C0010B5034B0360044600F0CDF8204610BDA0
:108C2C009C970D0010B50446FFF7F2FF2046082173
:108C3C00FFF7C1FF204610BD2DE9F0411F46DDE9CD
:108C4C000834DDF8188098450646154607D1079973
:108C5C0000F0B4F818B165710020BDE8F081394618
:108C6C00304600F0ABF80028F6D00123C4F80080A1
:108C7C002571A371F0E738B515461C4600F09EF837
:108C8C0020B10823E36006232560237138BD73B53A
:108C9C0005460C4601921E4600F090F850B9032E82
:108CAC0008D82368019A5B692946204602B0BDE8C2
:108CBC007040184702B070BD10B5034B03600446FA
:108CCC00FFF7A6FF204610BDFC970D0010B504461B
:108CDC00FFF7F2FF20460C21FFF76DFF204610BD79
:108CEC00F7B5089F974205460E4614460AD0A86869
:108CFC0002680897156A31462246AC4603B0BDE8B7
:108D0C00F04060471946019300F058F8019B002889
:108D1C00EDD0062003B0F0BD2DE9F14F0D461946FC
:108D2C00DDE90A4BDDE90CA681461746984600F0B2
:108D3C0045F890B1002D3460377109DB61198A4513
:108D4C000CBF06210121B171002001B0BDE8F08FEC
:108D5C000235F9D10123B371F6E7544506D15946D2
:108D6C00484600F02BF808B17771EDE7D9F8080008
:108D7C000368CDE90CA6CDE90A4BDC693A464346BB
:108D8C002946A44601B0BDE8F04F60472DE9F041FB
:108D9C0007460C4615461E46FFF76DFF48B9B868E6
:108DAC0003689F692A4633462146BC46BDE8F0411C
:108DBC006047BDE8F081704700207047814208B5DC
:108DCC000ED0406803782A2B0CD049680B782A2BDC
:108DDC0008BF013100F08FF8B0FA80F0400908BDEF
:108DEC000120FCE70020FAE710B5054C13462CB126
:108DFC000A4601460220AFF3008010BD2046FCE776
:108E0C000000000030B501390024A24201D100203D
:108E1C0005E0035D01340D5DAB42F6D0581B30BD4F
:108E2C000A44914200F1FF3300D1704710B511F89C
:108E3C00014B03F8014F9142F9D110BD884210B596
:108E4C0001EB020402D98442234607D8431EA142F7
:108E5C0008D011F8012B03F8012FF8E70244014662
:108E6C008A4200D110BD13F8014D02F8014DF7E70D
:108E7C0002440346934200D1704703F8011BF9E703
:108E8C0038B50D4B1D68AB6B04467BB91820FBF74E
:108E9C009BFF0A4A0A4BA863C0E90023094B836075
:108EAC000B23838101220023C0E90423AB6B002236
:108EBC001C615A6138BD00BF84DE03200E33CDAB7C
:108ECC0034126DE6ECDE0500C9B2034610F8012B36
:108EDC001AB18A42F9D118467047002918BF0023ED
:108EEC00F9E710B50446FFF7EFFF18B9204600F07C
:108EFC0032F8204410BD10F8012B11F8013B012A67
:108F0C0028BF9A42F7D0D01A7047034611F8012BAC
:108F1C0003F8012B002AF9D170470000024B0146DF
:108F2C00186800F003B800BF84DE032037B5044690
:108F3C0008460D4600F00FF8421C114620460192DF
:108F4C00FBF76AFF044618B1019A2946FFF768FF40
:108F5C00204603B030BD034613F8012B002AFBD189
:108F6C00181A0138704710B56AB10139841810F815
:108F7C00013B11F8012F934203D1A04201D0002BE9
:108F8C00F5D1981A10BD1046FCE710B50246014405
:108F9C008A42134601D1181A10BD1C780132002CDC
:108FAC00F6D1F8E738B503460C4669B9BDE8384048
:108FBC00FFF78ABF431C054621461846FFF784FF7E
:108FCC000028F7D1284638BD0025F5E72DE9F047F4
:108FDC003A4E86468C4660461CF8014BA55D15F052
:108FEC000805F8D12D2C33D19CF800404FF0010826
:108FFC0000F1020C002B5CD0102B0CD1302C0AD1C0
:10900C009CF8000000F0DF0058284DD19CF801407E
:10901C0010230CF1020C08F10047013F0026B7FBAE
:10902C00F3F9304603FB197AA4F13005092D18D851
:10903C002C46A34224DD751C07D081451DD301D1DC
:10904C00A2451ADB00FB034001261CF8014BEBE7A1
:10905C002B2C08BF9CF80040A84608BF00F1020C5E
:10906C00C8E7A4F14105192D01D8373CE1E7A4F17B
:10907C006105192D04D8573CDBE74FF0FF36E4E7C8
:10908C00731C06D12223CEF80030384642B9BDE815
:10909C00F087B8F1000F00D04042002AF7D00EB193
:1090AC000CF1FF311160F2E73024002BB3D108230F
:1090BC00B1E7302CA4D00A23ADE700BF36980D00E1
:1090CC0013460A46014602480068FFF77FBF00BFFF
:1090DC0084DE03201D400D0059400D0081400D0021
:1090EC0085400D000000000048454C4C4F0053508B
:1090FC00454349414C204D4553534147452052452A
:10910C00434549564544005350454349414C204D35
:10911C0045535341474500747570706572776172A1
:10912C00655F75706C6F61640054757070657277F3
:10913C006172655F372C54757070657277617265FA
:10914C005F382C547570706572776172655F390089
:10915C00546172676574004E65775F4E616D650092
:10916C006164766572746973650053657269616CCC
:10917C0020446174612052656365697665642000E2
:10918C0053657269616C00727373693D256420616B
:10919C006464726573733D253032583A2530325809
:1091AC003A253032583A253032583A253032583A2E
:1091BC0025303258200A00416476657274697369EF
:1091CC006E67206E616D653A202573200A007376F8
:1091DC0063436F756E74203D202564200A00666F12
:1091EC00756E645365727669636555756964203D67
:1091FC00202558200A00547570706572776172656D
:10920C005F3700547570706572776172655F3800F6
:10921C0046726573685375726574795F5541525423
:10922C0000636F6E6E6563740036453430303030D9
:10923C00312D423541332D463339332D45304139AB
:10924C002D4535304532344443434139450036458C
:10925C003430303030322D423541332D46333933B2
:10926C002D453041392D4535304532344443434149
:10927C0039450036453430303030332D42354133AA
:10928C002D463339332D453041392D453530453256
:10929C00344443434139450074780072780000002F
:1092AC0000000000000000000000000000000000B2
:1092BC009D400D00C1400D000000000000000000AA
:1092CC00E9400D001D410D00B17F0D00C3400D00A4
:1092DC00776972696E672E626C6500537461727483
:1092EC0020646973636F766572696E67207365724B
:1092FC0076696365732E00537461727420646973AC
:10930C00636F766572696E672063686172616374FE
:10931C0065726973746963732E005065657220649D
:10932C006576696365206973206D697373696E670F
:10933C0021004661696C656420746F2061707065F2
:10934C006E6420706565722043656E7472616C206A
:10935C006465766963652E00436F6E6E6563746534
:10936C00642062792043656E7472616C206465764A
:10937C006963652E00446973636F6E6E6563746513
:10938C00642062792072656D6F74652064657669FE
:10939C0063652E004661696C656420746F20617092
:1093AC0070656E6420646973636F766572656420A2
:1093BC00736572766963652E0043616E6E6F7420FF
:1093CC00616464206E6577207065657220646576D3
:1093DC006963652E004E65772070657269706865EB
:1093EC0072616C20697320636F6E6E656374656463
:1093FC002E004661696C656420746F206170706525
:10940C006E6420646973636F76657265642063684B
:10941C006172616374657269737469632E0044755B
:10942C00706C6963617465642063686172616374F4
:10943C00657269737469632063616E6E6F74206208
:10944C00652061646465642E004661696C65642006
:10945C00746F20617070656E64206C6F63616C203A
:10946C0063686172616374657269737469632E00F9
:10947C000000000000000000794E0D00E34E0D00CE
:10948C00DD4E0D000D4F0D007D4E0D000000000057
:10949C0000000000754E0D00F14E0D00774E0D00D2
:1094AC00114F0D009D4E0D0000000000000000004B
:1094BC00734E0D00FF4E0D00CD5C0D00154F0D00D1
:1094CC00BD4E0D000000000000000000FB349B5F4F
:1094DC008000008000100000000000007BE3277477
:1094EC007BF815ACDD49A913000072F5FB349B5FCA
:1094FC008000008000100000000000000000000050
:10950C0000000000D5680D00DB680D002B690D0014
:10951C00E9680D00D7680D00000000000000000095
:10952C00A36E0D00996E0D008F6E0D00856E0D00F3
:10953C00796E0D006D6E0D00616E0D00596E0D0093
:10954C004F6E0D00456E0D0039830D0000000000BC
:10955C0000000000D16E0D00C16E0D00C36E0D0039
:10956C0025640025750075253034780062617564BA
:10957C000053657269616C31004A534F4E537472DB
:10958C0065616D4C6F6748616E646C6572006170EB
:10959C007000253031307520005D20002C20002813
:1095AC00293A2000205B00636F6465203D20002574
:1095BC00690064657461696C73203D20000D0A00BC
:1095CC006D00630066006C6E00666E00636F646510
:1095DC000064657461696C0000000000000000000C
:1095EC008B730D00B1730D0071730D00D16F0D00F5
:1095FC000000000000000000D9770D00F1770D008D
:10960C00B17F0D00C3400D00000000000000000001
:10961C0005780D0019780D005D810D0079730D0032
:10962C00000000000000000089730D00BF730D00E6
:10963C00ED7E0D007B730D000000000000000000AB
:10964C0087730D00CD730D0021770D00E9730D00AC
:10965C000000000000000000D1820D00DB820D0034
:10966C00E5820D00EF820D00F9820D0005830D00DF
:10967C0011830D001D830D0025830D002F830D001C
:10968C0039830D0025592D256D2D25645425483A17
:10969C00254D3A2553257A0061736374696D650015
:1096AC000000000000000000F1870D005D880D0037
:1096BC0035880D0021840D0005880D0021880D00D2
:1096CC0013880D002F880D00F3870D00F7870D0010
:1096DC00000000000000000005890D006D890D00E0
:1096EC0043890D0021840D0035890D0007890D007B
:1096FC0017890D0067890D0027890D0001890D0060
:10970C000000000000000000778A0D006D8A0D003B
:10971C00638A0D00198A0D00578A0D004B8A0D00C3
:10972C003F8A0D00378A0D002D8A0D00238A0D000B
:10973C0039830D0000537431395F53705F6D616B69
:10974C00655F7368617265645F7461670000000037
:10975C009C970D0041970D00FC970D0070970D0024
:10976C0020980D004E31305F5F63787861626976C6
:10977C003131375F5F636C6173735F747970655FF0
:10978C00696E666F450000000000000064970D00D4
:10979C001D8C0D00318C0D00C58D0D00C58D0D007F
:1097AC009B8C0D00DD8B0D00838C0D00458C0D000A
:1097BC00118C0D00FC970D00CC970D0064970D00DB
:1097CC004E31305F5F637878616269763132305F39
:1097DC005F73695F636C6173735F747970655F69E4
:1097EC006E666F450000000000000000C0970D0081
:1097FC00C58C0D00D98C0D00C58D0D00C58D0D00CF
:10980C009B8C0D00DD8B0D00998D0D00258D0D00B1
:10981C00ED8C0D009C970D0028980D005374397435
:10982C007970655F696E666F000020202020202013
:10983C0020202028282828282020202020202020F4
:10984C0020202020202020202020881010101010F4
:10985C001010101010101010101004040404040444
:10986C000404040410101010101010414141414127
:10987C00410101010101010101010101010101018C
:10988C00010101010110101010101042424242421D
:10989C00420202020202020202020202020202025C
:1098AC000202020202101010102000000000000042
:1098BC00000000000000000000000000000000009C
:1098CC00000000000000000000000000000000008C
:1098DC00000000000000000000000000000000007C
:1098EC00000000000000000000000000000000006C
:1098FC00000000000000000000000000000000005C
:10990C00000000000000000000000000000000004B
:10991C00000000000000000000000000000000003B
:10992C0000000000000000000000000055470D0082
:10993C00AD680D00AD6E0D00A17F0D000D840D0006
:10994C0051850D00A1870D00DD870D00818A0D006A
:04995C000000000007
:049960000000000003
:1099640034960D004C960D00A4960D0088DE03205D
:1099740000000000000000000000000000000000E3
:1099840000000000000000000000000000000000D3
:1099940000000000000000000000000000000000C3
:1099A40000000000000000000000000000000000B3
:1099B40000000000000000000000000000000000A3
:1099C4000000000000000000000000000000000093
:1099D400FFFFFFFF00000102030405060708090A50
:1099E4000B0C0D0E0F101112131415161718191A4B
:0899F4001B1C1D1E1F20280092
:0499FC007856341253
:04000003D000401CCD
:00000001FF
