:02000002D0002C
:1040000000400D005C9A0D00000006000C00050148
:084010000401D70700000000C5
:0440180038910D00CE
:10401C0009480A49884208B505D0094A824202D0AB
:10402C00121A04F029FF0748074A0021121A04F05B
:10403C004BFF014808BD00BF78DE0320C4990D007A
:10404C00E8DE0320E8DE0320F0E7032070B5074E1E
:10405C00074C04F0A5FDA41BA4080025A54200D123
:10406C0070BD56F8043B98470135F7E794990D005D
:10407C00B8990D0000F0D4B808B500F051F9BDE8BE
:10408C00084004F04FBD00F0A1BE00F0A7BE000038
:10409C0008B5034A00210C2000F0D4FDFEE700BF58
:1040AC00F14A0D000078B0FA80F040097047012306
:1040BC00037070477047006A0368DB68184700009C
:1040CC0013B5054B1B788DF800303C23044602F0E9
:1040DC006BFD204602B010BD00DF03200A4B10B56B
:1040EC000446036003F0B2FA214603F0B4FC04F07A
:1040FC008FFC04F081FC2046044B40F8043B03F099
:10410C0097FB204610BD00BF28930D0010930D00A7
:10411C0010B50446FFF7E2FF2046242104F077FD9A
:10412C00204610BD0EB403B503AB002153F8042B8D
:10413C00019304F0FCF902B05DF804EB03B0704796
:10414C000EB410B58DB00FAA016852F8044B03924F
:10415C0000232020CDE90403CDE900421E2004AA4F
:10416C0000F080FD0DB0BDE8104003B0704738B5CD
:10417C00046805467CB16368013B63605BB92368E6
:10418C0020469B689847A368013BA3601BB9236832
:10419C002046DB689847284638BD000090B501F1F1
:1041AC00080389B023F0070300AFADEB030D0A46FB
:1041BC000C460146684604F05FFE0023694638460B
:1041CC000DF8043004F043FA114907F1100004F023
:1041DC003EFA07F11001384604F0DAFA044607F10A
:1041EC00100004F0E9F9384604F0E6F964B1094A24
:1041FC00094907F11000FFF763FF07F11400FFF7FF
:10420C00B6FF2437BD4690BD04496A46F1E700BFAE
:10421C004C910D0052910D006B910D007B910D0096
:10422C0010B596B0354A36490DA8FFF749FF0EA8D0
:10423C00FFF79DFF04F0ECFB4FF4165104F0D8FB94
:10424C0001F04EFC01F096FC2E4A2F49104601F06D
:10425C00E9FA01F045FC2D4A01460DA802F052FA8C
:10426C000DA801F029FD01F03BFC294A01460DA8DF
:10427C0002F048FA0DA801F01FFD0DA801F0B3F8EB
:10428C0024490DA801F0C8F8234903A800F026FF23
:10429C0003A908A800F022FF08A800F06FFF04464D
:1042AC0008A814BB00F089FF0094ADF80A000223A3
:1042BC000DF10A0203210DA801F04DF80DA908A873
:1042CC0001F008F9089A154903A8FFF7F9FE04A8AC
:1042DC00FFF74DFF08A804F06FF901F001FC002274
:1042EC000DA901F07DFC16B010BD00F06BFF002392
:1042FC000093024610230721DDE700BF8D910D00CE
:10430C00B7910D0044DF0320A9410D001CE60320EA
:10431C004CDF0320BE910D00ECDE0320C7910D0095
:10432C002DE9F04FAD4CA1B000F0E4FB2368C01AAE
:10433C00B0F57A7F02D300F0DDFB206001F0D0FBFA
:10434C0001F094FC68B3A64C4FF0000804F060FB3D
:10435C0003681B699847D8B12368132B18D803201E
:10436C0000F06CFD04F054FB03681B69984718AD12
:10437C0007460026A946BE4280F2AD8004F048FBF9
:10438C0003685B6998470136287005F8018FF2E7DE
:10439C00226832B100239349934801F0A9F9002314
:1043AC002360924C00F0A6FB2368C01AB0F5FA6F9C
:1043BC00C0F08E8000F09EFB206001F091FB8C49D8
:1043CC00142201F02BFC0746002800F08180DFF856
:1043DC002082DFF85CA20026542404FB068316FB23
:1043EC0004F408EB040593F95020099200212846A7
:1043FC0000F02BFE01210890284600F026FE022139
:10440C000690284600F021FE03210790284600F074
:10441C001CFE04218146284600F017FE0521834628
:10442C00284600F012FE079B0193069BCDF80890DE
:10443C005146CDE903B000936E48DDE908320834EB
:10444C00FFF77EFE44440EA800F012FE01220EA9D6
:10445C00204601F0C8F8214681460AA801F03AF836
:10446C000C9B23B10A9A64496248FFF769FE04F079
:10447C00CFFA4A466149FFF755FE04F0C9FA0EA976
:10448C00044613A800F02AFE5D4913AA2046FFF744
:10449C0049FE5C490AA804F088F900283FD15A4922
:1044AC000AA804F082F9002839D158490AA804F066
:1044BC007CF9002833D156490AA804F076F9002873
:1044CC002DD101360AA8F6B204F076F8BE4283D399
:1044DC0021B0BDE8F08F04F09BFA0368414D5B6995
:1044EC00984723685A1C2260E85404F091FA236818
:1044FC001D44036815F8011C9B689847454A4649BA
:10450C0013A8FFF7DDFD14A8FFF731FE13A84249ED
:10451C004A46FFF7D5FD14A8FFF729FE16E701F070
:10452C00DFFA012301462A4613A802F025F813A945
:10453C003A4801F047FA13A801F0C5FB374801F0DF
:10454C006FFA002845D02F490AA804F02EF938B18B
:10455C0013A82C4A3249FFF7B3FD14A8FFF707FE46
:10456C0029490AA804F021F938B113A8264A2C4984
:10457C00FFF7A6FD14A8FFF7FAFD24490AA804F0DA
:10458C0014F938B113A8214A2549FFF799FD14A84D
:10459C00FFF7EDFD1E490AA804F007F938B113A87E
:1045AC001B4A1F49FFF78CFD14A8FFF7E0FD0A9A80
:1045BC001B4913A8FFF784FD14A8FFF7D8FD194A6F
:1045CC001949164801F008FA184A0749134801F02E
:1045DC0003FA0AA803F0F0FF7AE700BF2CDF0320F0
:1045EC0024E6032008E603203CDF032030DF032011
:1045FC0054DF03204CE603201E920D0035920D0073
:10460C0045920D005D920D006B920D00A9910D006D
:10461C0079920D00D1910D00E7910D0034DF03204C
:10462C008A920D0018DF032044DF032004DF0320EF
:10463C00EE910D0070B5D0E900531426044606FB2C
:10464C000356AE4204D0284603F0B6FF1435F8E703
:10465C00206800F0C3FB204670BDF0B5164691B043
:10466C000022C0E9002204460D460BAF194606A8ED
:10467C0000F034FD1699384600F030FD33788DF893
:10468C001430189B0293179B2046CDE9007305AAA2
:10469C0006AB294601F06CFB204611B0F0BD8842F8
:1046AC00F8B504460D46164616D9904215D2A2F11D
:1046BC001406751AA1F114072C44B7421CD02CB166
:1046CC003146204603F0F4FF337C2374304603F06C
:1046DC0073FF143E143CF0E70ED0B5420CD02CB155
:1046EC002946204603F0E4FF2B7C2374284603F074
:1046FC0063FF14351434F0E7F8BD2DE9F0410023C5
:10470C00C0E9003383604F689F4204460E4623DDA8
:10471C004FF0140808FB07F000F058FB0546D8B121
:10472C00D4E9001208FB0212FFF7B9FF206800F071
:10473C0055FB2560A760D6E9007308FB0378B845E4
:10474C0008D03946284603F0CDFF3B7C2B74143738
:10475C001435F4E7736863602046BDE8F08100000F
:10476C0030B5554A554C95B000231370CDE9043340
:10477C00069304F04DF904A9054607A8FFF7BDFF01
:10478C0007A90AA8FFF7B9FF4D4B23600AA90FA888
:10479C00FFF7B3FF0FAA0121201D03F0AFFA0FA8FA
:1047AC00FFF748FF0AA8FFF745FF464B2360256239
:1047BC0007A8FFF73FFF444B236004F029F94FF49F
:1047CC00165104F015F902F041FF214603F028FAC6
:1047DC0004A8FFF72FFF3D4A3D493E4D204604F00B
:1047EC0011FA3D493D4800F09BFD3D493D4800F024
:1047FC0097FD3D493D4800F093FD1424284600F0F8
:10480C001FFC05F1080000F0EEFD05F12C0000F096
:10481C00EAFD013C05F15405F0D1354800F03CFFB0
:10482C002A4A3449324804F0EDF9334800F034FF99
:10483C00264A3049304804F0E5F9304801F0A0F838
:10484C00224A2F492D4804F0DDF9102327498DF811
:10485C001C300AA800F042FC20490FA800F03EFCD6
:10486C000FAB009307AA0AABCDE9014425492648B2
:10487C00FFF7F3FE154A1F49234804F0C3F904233C
:10488C0018498DF81C300AA800F028FC13490FA811
:10489C0000F024FC1D4B01930FAB009307AA0AAB4D
:1048AC001B4902941B48FFF7D8FE084A11491948C6
:1048BC0004F0A8F915B030BD00DF0320E4E50320B7
:1048CC0010930D0060960D0028930D00E8DE032078
:1048DC00E9400D0054DF032092920D00ECDE032022
:1048EC00B7920D0004DF0320DC920D0018DF0320CB
:1048FC0044DF0320C55C0D003CDF032034DF0320C4
:10490C00D35C0D0001930D001CE60320A9410D00A2
:10491C0004930D004CDF032008B5024B1B689B6809
:10492C00019308BD7802030008B5024B1B681B6D90
:10493C00019308BD7802030008B5024B1B689B6D00
:10494C00019308BD7802030008B5024B1B681B6E6F
:10495C00019308BD7802030008B5024B1B68DB6F9E
:10496C00019308BD7802030008B5034B1B68D3F80C
:10497C008430019308BD00007802030008B5034B96
:10498C001B68D3F89830019308BD0000780203002F
:10499C0008B5034B1B68D3F8A830019308BD000081
:1049AC007802030008B5034B1B68D3F8B4300193AD
:1049BC0008BD00007802030008B5034B1B68D3F850
:1049CC00BC30019308BD00007802030008B5034B0E
:1049DC001B68D3F8C430019308BD000078020300B3
:1049EC0008B5034B1B68D3F8D830019308BD000001
:1049FC007802030008B5034B1B68D3F8DC30019335
:104A0C0008BD00007802030008B5034B1B68D3F8FF
:104A1C00E030019308BD00007802030008B5034B99
:104A2C001B68D3F8E430019308BD00007802030042
:104A3C0008B5034B1B68D3F8EC30019308BD00009C
:104A4C007802030008B5034B1B68D3F8F0300193D0
:104A5C0008BD00007802030008B5034B1B68D3F8AF
:104A6C00F430019308BD00007802030008B5034B35
:104A7C001B68D3F80031019308BD000078020300D5
:104A8C0008B5034B1B68D3F80431019308BD000033
:104A9C007802030008B5024B1B685B6C019308BDE0
:104AAC004802030008B5024B1B689B6C019308BDC0
:104ABC004802030008B5024B1B68DB6C019308BD70
:104ACC004802030008B5024B1B685B6D019308BDDF
:104ADC004802030008B5024B1B685B68019308BDD4
:104AEC001802030008B5024B1B68DB68019308BD74
:104AFC001802030008B5024B1B685B69019308BDE3
:104B0C001802030008B5024B1B685B69019308BDD2
:104B1C006402030008B5024B1B689B68019308BD37
:104B2C006802030008B5024B1B68DB68019308BDE3
:104B3C006802030008B5024B1B681B68019308BD93
:104B4C003C02030008B5024B1B689B68019308BD2F
:104B5C003C02030008B5024B1B68DB68019308BDDF
:104B6C003C02030008B5024B1B681B69019308BD8E
:104B7C003C02030008B5024B1B685B69019308BD3E
:104B8C003C02030008B5024B1B689B69019308BDEE
:104B9C003C02030008B5024B1B68DB69019308BD9E
:104BAC003C02030008B5024B1B689B6A019308BDCD
:104BBC003C02030008B5024B1B68DB6A019308BD7D
:104BCC003C02030008B5024B1B681B68019308BD2F
:104BDC004C02030008B5024B1B685B68019308BDCF
:104BEC004C02030008B5024B1B689B68019308BD7F
:104BFC004C02030008B5024B1B681B69019308BDEE
:104C0C004C02030008B5024B1B685B69019308BD9D
:104C1C004C02030008B5024B1B689B69019308BD4D
:104C2C004C02030008B5024B1B68DB69019308BDFD
:104C3C004C02030008B5024B1B681B6A019308BDAC
:104C4C004C02030008B5024B1B685B6B019308BD5B
:104C5C006002030008B5024B1B681B6D019308BD75
:104C6C006002030008B5024B1B685B6D019308BD25
:104C7C006002030008B5024B1B68DB6E019308BD94
:104C8C006002030008B5024B1B681B6F019308BD43
:104C9C006002030008B5024B1B685B68019308BDFA
:104CAC002002030008B5024B1B685B69019308BD29
:104CBC002002030008B5024B1B68DB6C019308BD96
:104CCC002002030008B5024B1B685B6D019308BD05
:104CDC002002030008B5034B1B68D3F888300193FE
:104CEC0008BD00002002030008B5034B1B68D3F875
:104CFC009430019308BD00002002030008B5024B5C
:104D0C001B685B69019308BD4402030008B5024BA4
:104D1C001B681B6A019308BD4402030008B5024BD3
:104D2C001B68DB6B019308BD4402030008B5024B02
:104D3C001B685B68019308BD4002030008B5024B79
:104D4C001B689B68019308BD4002030008B5024B29
:104D5C001B68DB68019308BD4002030008B5024BD9
:104D6C001B681B69019308BD4002030008B5024B88
:104D7C001B685B69019308BD4002030008B5024B38
:104D8C001B689B69019308BD4002030008B5024BE8
:104D9C001B68DB69019308BD4002030008B5024B98
:104DAC001B681B6A019308BD4002030008B5024B47
:104DBC001B681B6B019308BD4002030008B5024B36
:104DCC001B685B6B019308BD4002030008B5024BE6
:104DDC001B681B68019308BD1C02030008B5024B3D
:104DEC001B685B68019308BD1C02030008B5024BED
:104DFC001B689B68019308BD1C02030008B5024B9D
:104E0C001B685B6A019308BD1C02030008B5024BCA
:104E1C001B68DB6A019308BD1C02030008B5024B3A
:104E2C001B681B6B019308BD1C02030008B5024BE9
:104E3C001B685B6C019308BD1C0203000021FFF78B
:104E4C0031BF10B5836804460BB903F0E4FEC368A8
:104E5C009847A3681BB10322214620469847204659
:104E6C001021BDE8104003F0D2BE70477047704768
:104E7C0070470000064B994210B500F10C0405D0A8
:104E8C00084603F0CBFE002808BF0024204610BDC6
:104E9C002C950D00064B994210B500F10C0405D071
:104EAC00084603F0BBFE002808BF0024204610BDB6
:104EBC002C950D00064B994210B500F10C0405D051
:104ECC00084603F0ABFE002808BF0024204610BDA6
:104EDC002C950D00483003F06FBB10B560210446D3
:104EEC0003F095FE204610BD10B52421044603F0B6
:104EFC008EFE204610BD10B53021044603F087FE0F
:104F0C00204610BDFFF7C1B8FFF7BFB8FFF7BDB81B
:104F1C0010B5036804469B689847A368013BA360DF
:104F2C002BB923682046DB68BDE81040184710BD3C
:104F3C0010B50446006808B1FFF7B4FD204610BD5B
:104F4C00F0B50025EC1C8C420DD86E1C445D875DC1
:104F5C00974205D12644B14205D31D60601CF0BDBB
:104F6C0001342544EEE70020F9E7000010B50023DA
:104F7C008AB02022CDE902230446084A009208494F
:104F8C0002AA0120FFF766FE20680649008800236C
:104F9C002246FFF711FD0AB010BD00BF43930D0070
:104FAC0038930D00E1620D00024A00210A20FFF740
:104FBC0049BE00BFF14A0D0038B503688B42054667
:104FCC000C460CD011B14B6801334B60286828B1EA
:104FDC004368013B43600BB9FFF79AFF2C602846EE
:104FEC0038BDA0F13003DAB2092A01D8184670474F
:104FFC00A0F16103052B01D857387047A0F141038C
:10500C00052B94BF37384FF0FF30704710B5002395
:10501C000370044B04461868FFF74CFD0123237002
:10502C00204610BD30E6032010B5037804461BB1B2
:10503C00024B1868FFF746FD204610BD30E60320F2
:10504C0000224260026082717047052994BF405C67
:10505C000020704708B582798B799A4206D10622D6
:10506C0003F0FCFEB0FA80F0400908BD0020FCE71C
:10507C0001220261064A1168016051684160118980
:10508C00927A827200220181C0F80B20C2737047A1
:10509C0034950D000B7C13F0FD0310B50FD10E4AA7
:1050AC00C0F80B3014680460546844601489927A18
:1050BC00036104818272C3730B88838110BD012349
:1050CC00036101F11002034651F8044B43F8044B01
:1050DC009142F9D1F2E700BF34950D0010B50B6980
:1050EC00036101F11002034651F8044B43F8044BE1
:1050FC009142F9D110BD10B50B460446B1B1012A4D
:10510C0001F110020AD1014653F8040B41F8040BCB
:10511C009342F9D101232361204610BD411E12F8A0
:10512C00010D01F8010F9A42F9D1F3E7102203F0B7
:10513C00CBFEF1E710B503460C46FFF799FF0022B2
:10514C001A619C81184610BD38B5044615461A469E
:10515C00FFF7D1FFA581204638BD000008B50269D4
:10516C0022B98089003818BF012008BD02491022DD
:10517C0003F074FEF6E700BF54950D00006970470C
:10518C0038B50C4614220021054603F09DFE236918
:10519C003BB9627B2B74237B43EA02232B8028468A
:1051AC0038BD01232B7404F110022B4654F8041B58
:1051BC0043F8041B9442F9D1F1E7427B007B40EAAF
:1051CC0002207047704710B50B69036101F11002A2
:1051DC00034651F8044B43F8044B9142F9D110BDEE
:1051EC0010B586B00446012201A8FFF784FF01A97F
:1051FC002046FFF7E8FF06B010BD10B586B0044698
:10520C0001A8FFF797FF01A92046FFF7DCFF06B0C6
:10521C0010BD10B586B0044601A8FFF73BFF01A9ED
:10522C002046FFF7D0FF06B010BD08B502690B6928
:10523C009A4206D1102203F011FEB0FA80F0400918
:10524C0008BD0020FCE7000001232DE9F3410361B8
:10525C00324B1A6802605A68426000251A899B7AA0
:10526C00028104468372C0F80B50C5730E4621B3FD
:10527C002421304603F0B5FE042821D1ADF80450AA
:10528C0001AFB51C063615F8020CFFF7AAFEB0F1FB
:10529C00000810DB15F8010CFFF7A3FE00280ADB51
:1052AC00023540EA0810AE4207F8010BEBD1BDF80D
:1052BC0004305BBAA3810023236102B0BDE8F08106
:1052CC0010272421304603F08CFEA84206D8274430
:1052DC000023BC42F1D007F8013DFAE7002FECD0D7
:1052EC00705DFFF77EFE030615D40001013F5FFAE7
:1052FC0080F804F807802421304603F072FE013553
:10530C00A84208D9705DFFF76CFE40B20028A4BF1C
:10531C0040EA0800E0550135D3E700BF34950D0095
:10532C0013B504460191FFF7A3FE20460199FFF740
:10533C008BFF204602B010BD38B5054601B11AB935
:10534C0000242C62204638BD1F2A28BF1F22144679
:10535C0003F092FDF5E72DE9F34789469DF8287097
:10536C00016A04461E46904632B301AB4A46FFF72B
:10537C00E7FD256AB31C1FBB10B3EF183F1A1F2F94
:10538C0019D8DDF8049009F1020AA5EB0902121AEA
:10539C0000EB090106EB0A0092B22144204403F011
:1053AC0079FD731C04F809303246414604EB0A00BF
:1053BC0003F062FD2762216A084602B0BDE8F0875F
:1053CC002B441F2BF7D8731C6355A81C2544206253
:1053DC00324685F801904146204403F04DFD236A86
:1053EC0033442362E7E71FB50446024600F11F0170
:1053FC00002302F8013B9142FBD123620093062269
:10540C0001238DF80F2019460DF10F022046FFF7EE
:10541C00A2FF204604B010BD1FB50A460446142155
:10542C001046039203F0DDFD002103460091039A20
:10543C0009212046FFF78FFF04B010BD73B50A4653
:10544C000E4601AB016A0446FFF77AFD054678B1BA
:10545C000198226A4119121A2144521B204403F06C
:10546C000BFD206A401B206231462046FFF7E6FF09
:10547C0002B070BDF7B515461F460A4601AB016A6E
:10548C000646FFF75DFD30F002040BD0841EBC42D3
:10549C0028BF3C4635B10199023122463144284699
:1054AC0003F0EAFC204603B0F0BD37B513460C46BA
:1054BC0001920A4608210546FFF7DCFF40B9019B23
:1054CC0022460921284603B0BDE83040FFF7D2BF81
:1054DC0003B030BDF0B50C4689B00C49054603F05D
:1054EC00B6F81F2269462046FFF7DFFF064650B18B
:1054FC006C46002714F8011B284603F027F910B15D
:10550C000137BE42F6D1284609B0F0BD27960D00F2
:10551C002DE9F04F994687B08B1E0025DBB207466C
:10552C00884601922C460293396AA94257D905AB99
:10553C004246491B7819FFF703FD064600284ED05A
:10554C004C454CD2029B012B22D8A0F1020B4FEA06
:10555C005B0BA9EB04024FF0000A1423D34505980A
:10556C0039D09245039236D0284400EB4A00384497
:10557C00019A90F803C0817803FB042041EA0C21C6
:10558C00FFF73BFE0AF1010A039A01341423E5E705
:10559C00A8F10603012B1ED8A0F1020B4FEA1B1B2E
:1055AC00A9EB04024FF0000A1423D345059912D03D
:1055BC00924503920FD00231019A294401EB0A1152
:1055CC0003FB04203944FFF70BFE0AF1010A039A8E
:1055DC0001341423E9E7059806443544A4E7204632
:1055EC0007B0BDE8F08F2DE9E04313460E46174691
:1055FC000A4602218046FFF78BFF4FF014093B1A35
:10560C0009FB0062054603214046FFF781FF054474
:10561C007B1B09FB056206214046FFF779FF054419
:10562C007B1B09FB056207214046FFF771FF2844ED
:10563C00BDE8E08338B54FF6FF7300250446438080
:10564C000E22294605700571063003F03DFC04F16D
:10565C001400FFF70DFD04F12800FFF709FD0449C4
:10566C0004F13C0002F0F3FFC4E91355204638BDA9
:10567C0027960D0010B5D0E9063203EBC202934217
:10568C00184606D0046824888C4203F10803F6D12E
:10569C0010BD0020FCE70000002370B50360054638
:1056AC006020FEF7F0FC041E04F10C0607D0012369
:1056BC00C4E90133044B23603046FFF7BBFFC5E957
:1056CC000064284670BD00BFE0940D0010B5026860
:1056DC000446D06C18B10B68D864126D1A6520465C
:1056EC000B6840F8043B4968FFF766FC204610BD88
:1056FC00F0B5064685B01F460D46002950D0002A4D
:10570C004ED004682378F42A28BFF42243B32379BB
:10571C00980709D5A08903920023FFF743F90028C5
:10572C00039A03DA05B0F0BD6FF077003468237983
:10573C00D90609D5012F07D0A0890023294605B029
:10574C00BDE8F040FFF792B99B06EBD5022FE9D0EC
:10575C00A0890023294605B0BDE8F040FFF790B9B9
:10576C0060884FF6FF7188421CD021794E0701D515
:10577C00012F04D10B0709D46FF07700D2E7A18970
:10578C00009313462A46FFF735F9CBE7022FF3D0E7
:10579C000023A189009313462A46FFF721F9C1E79C
:1057AC000248BFE76FF0D100BCE700BFF2FEFFFF7D
:1057BC0010B503681A7886B052BB5C884FF6FF7040
:1057CC00844225D0188A30B31448009014480592AE
:1057DC00CDE90322CDE901035888ADF80C00188AF5
:1057EC00ADF80E009889ADF8100059B11A799206EF
:1057FC0044BF022205921B79DB0642BF059B43F096
:10580C000103059300216846FFF726F906B010BD89
:10581C006FF0D100FAE76FF07700F7E7010018009E
:10582C002D5B0D000368C3E91312704770B5002699
:10583C00066004462420FEF726FC031E03F10C052B
:10584C0008D00122C3E90122044A1A602846FFF756
:10585C000FFC1E62C4E90053204670BDFC940D0081
:10586C002DE9F0414FF00008C0F8008005462420D7
:10587C000F46FEF708FC041E04F10C060DD00123A4
:10588C00C4E90133074B23603046FFF7F1FBC4F842
:10589C00208039463046FFF796FCC5E9006428465F
:1058AC00BDE8F081FC940D002DE9F04320238BB072
:1058BC000026CDE902360D462E4B00932E49DFF81B
:1058CC00BC90334602AA0120FFF7C4F92B68D3E938
:1058DC0003474FF01C0804EBC7070834A4F1080376
:1058EC009F42296819D0ADF80A8054F8083C9B8A6D
:1058FC00ADF8203054F8083CDB8AADF8223008882B
:10590C0000962B464A4602A9FFF760F8002804F1DE
:10591C000804E3DA0BB0BDE8F083D1E906460027B2
:10592C0004EBC6060834A4F108039E4220D054F8B8
:10593C00083CDB89D3B11022002103A8029703F0A5
:10594C00C3FA54F8083CD9892B6802AA1888009726
:10595C001323FFF759F848B10AAB184402A900F811
:10596C00207C54F8080C3C3002F0C7FE0834DAE70F
:10597C000020CFE75F930D0038930D00FD650D00FF
:10598C0038B50024046005463020FEF77CFB034646
:10599C0088B10122C0E90122094A02604FF6FF7268
:1059AC0082810E30FFF74CFBC3E90644C3E908447F
:1059BC00C3E90A44DC826B600C332B60284638BD8B
:1059CC0018950D0010B50B68044640F8043B496867
:1059DC00FFF7F2FA204610BD2DE9F0430368D3E936
:1059EC00064387B00E46174604EBC3084445A14650
:1059FC0014D054F8081B01A81431FFF76FFB39467B
:105A0C0001A8FFF712FC05460028EFD049463046A6
:105A1C00FFF75CFE284607B0BDE8F0830025F9E7E8
:105A2C00036818884FF6FF73C01A18BF012070471F
:105A3C0002680B68C2F802304B68C2F80630704737
:105A4C00096851F8022F02604A68426070471FB51E
:105A5C000B4601681A680988128891420CD10146DC
:105A6C006846FFF7EDFF02A81946FFF7E9FF02A908
:105A7C006846FFF7EFFA00B9002005B05DF804FBAB
:105A8C0010B504463420FEF7FEFA014668B1002337
:105A9C00C0E90033C0E90233C0E90433C0E906337E
:105AAC00C0E90833C0E90A330363216019B90A4A13
:105ABC000A20FFF7C7F80020FEF72EFF20B1064A98
:105ACC0000210A20FFF7BEF8216804480022FEF7E7
:105ADC00B9FF204610BD00BFF14A0D004D5F0D000F
:105AEC0010B50B4C2378BFF35B8FDB070ED420462D
:105AFC00FEF7D8FA50B10748FFF7C2FF2046FEF771
:105B0C00D6FA054A0549034803F07CF8014810BD54
:105B1C0028E6032034E60320E8DE03203D5D0D007B
:105B2C0070B50368093B012B8AB004460D4612D8A8
:105B3C00FFF7D6FFA1880068FFF79CFD024660B90D
:105B4C002023CDE90230094B00930949034602AAF0
:105B5C003220FFF77FF80AB070BDEE6C002EFAD041
:105B6C00D4E903102B6DB047F5E700BF82930D000D
:105B7C0038930D0013B501A8FFF748FA0020FEF783
:105B8C00CBFE044601A8FFF74FFA04EAE47002B01A
:105B9C0010BD084611B90A46FEF7C6BE096A0022B6
:105BAC00FAE707B5084629B90A4603B05DF804EBD5
:105BBC00FEF7C2BE01210190FFF740FC01980022C4
:105BCC00016AF2E713B501A8FFF720FA0020FEF7EF
:105BDC00BBFE044601A8FFF727FA204602B010BD11
:105BEC007FB5054603A801911646FFF70FFA0199F8
:105BFC002846FFF7CEFF041E09DB31462846FFF787
:105C0C00D0FF041E03DB2846FFF7DCFF044603A885
:105C1C00FFF70AFA204604B070BD000030B58BB017
:105C2C000D4601A81446FFF7F1F9CDB1C4B100221D
:105C3C000C48049202A9CDE90554CDE90222CDE924
:105C4C0007220992FEF788FE041E0298A8BF079C43
:105C5C00FFF7C4F801A8FFF7E7F920460BB030BDF9
:105C6C00014CF7E7B9600D00F2FEFFFF0368D8693D
:105C7C000028D4BF0020012070470B68036013B1CB
:105C8C005A6801325A60704710B551F8043B04460B
:105C9C0040F8043BFFF7F1FF23680BB9FFF784F9D9
:105CAC00204610BD10B551F8043B044640F8043BA7
:105CBC00FFF7E3FF204610BD10B504460430FEF795
:105CCC0056FA204610BD10B504460430FEF74FFAC4
:105CDC00204610BD70B5D0E90053044605EBC30651
:105CEC00AE4204D0281DFEF742FA0835F8E72068CA
:105CFC00FFF774F8204670BD70B5D0E90053044628
:105D0C0005EBC306AE4204D0281DFEF730FA083569
:105D1C00F8E72068FFF762F8204670BD10B504461E
:105D2C002430FFF7E9FF04F11800FFF7D3FF10BD93
:105D3C00F8B504680646C4B1D4E9065305EBC307AD
:105D4C00AF4204D0281DFEF712FA0835F8E7A06917
:105D5C00FFF744F804F10C00FFF7CEFF2046FFF7E5
:105D6C00B9FF3421204602F052FF3046F8BD000046
:105D7C002DE9F04385B080469946602000230D46FE
:105D8C0016460093FEF77FF9041E04F10C071CD095
:105D9C001C4B23600122C4E9012236783846FFF7F8
:105DAC0049FC2946267404F1480002F0A6FC0D9B20
:105DBC00A3650E9BE365494604F12000FFF703FA47
:105DCC000C9904F13400FFF7FEF90023CDE9003300
:105DDC00D8F800300293C8F80070D8F80430C8F82E
:105DEC00044003A80393FEF7C2F901A8FEF7BFF91C
:105DFC00D8F8001019B9044A0A20FEF723FF05B0A1
:105E0C00BDE8F083E0940D00F14A0D008842F8B52E
:105E1C0006460C46154618D9904217D2A2F1080531
:105E2C00A1F10807691A4418AF4220D02E1D34B1D5
:105E3C0020462B6840F8043B3146FFF71EFF3046E6
:105E4C00FEF795F9083D083CEEE710D0AC420ED0B9
:105E5C00271D36B13046236840F8043B3946FFF71E
:105E6C000CFF3846FEF783F908340836EEE7F8BD28
:105E7C002DE9F041D0E900430546884604EBC30701
:105E8C00A7421AD041462046FFF7E1FD064608B965
:105E9C000834F5E79CB1201DFEF769F9D5E900320D
:105EAC0004F1080103EBC2022046FFF7AFFF6B6859
:105EBC00013B6B603046BDE8F0810026FAE72646D0
:105ECC00F8E7F7B5044651F8043B4768009301A87E
:105EDC00FFF7D3FED4E901639E4212DB0136002E9C
:105EEC002CDDF000FEF772FF054608B3D4E9001272
:105EFC0001EBC202FFF78AFF2068FEF76FFF2560F7
:105F0C00A6602668626806EBC70506EBC202294646
:105F1C0005F10800FFF77AFF35B1009B46F83730E2
:105F2C0001A9281DFFF7A9FE6368013363600125F1
:105F3C0001A8FEF71CF9284603B0F0BD0025DBE7ED
:105F4C002DE9F04104468EB003A80D46FFF75EF82C
:105F5C002368032B07D0042B48D003A8FFF764F861
:105F6C000EB0BDE8F08104A8FFF70AFD049B22895E
:105F7C001A806268049952F8083FC1F802305368DD
:105F8C00C1F8063007A8049B069305A9FFF775FE18
:105F9C0006A905F11800FFF794FF044607A8FEF7C1
:105FAC00E6F8202306938CB9334B34490093322006
:105FBC00234606AA0794FEF74DFE049B214618883B
:105FCC00FEF7DCFC05A8FEF7D2F8C6E72C4A0092D7
:105FDC0000232A49079306AA0120FEF73BFE6B6AB1
:105FEC00002BEFD0E96A04A89847EBE721892846F3
:105FFC00FFF740FB06460028AFD00468D4E9063111
:10600C004FF6FF72228003EBC101994203D053F883
:10601C00080B4280F9E7D4E9037307EBC308B845D2
:10602C0004D0381DFEF7A3F80837F8E700232361E6
:10603C00D4E9067307EBC308B84504D0381DFEF746
:10604C0096F80837F8E70023E3616381AB6A13B174
:10605C00296B3046984700232022CDE90623094AB4
:10606C000092064906AA0120FEF7F4FD314605F11F
:10607C001800FFF7FDFE70E79A930D0038930D00A2
:10608C00C0930D00DD930D0038B50D1E044600685D
:10609C0005DD54216943FEF7A9FE18B938BDFEF79A
:1060AC009DFE00202060A5600120F7E7F0B5542686
:1060BC00C1B0054632460C4601A8002102F004FF8F
:1060CC0001A8FEF7BDFF03A8FFF78DF90CA8FFF799
:1060DC008AF92A4601AB52F8100F5168EA8903C3BA
:1060EC002B78A9688DF854300CA8FFF725F9AA89EC
:1060FC00696803A8FFF720F9A56935B1E16901A822
:10610C00A84763690133636114E0E068A0B1D4E986
:10611C00042393420ED25A1C626106FB03005122E7
:10612C0001A902F0A9FED4E904329A4202D328460E
:10613C00FEF71AFC41B0F0BD324601A916A802F0D8
:10614C009BFE324616A92BA8656802F095FEA36843
:10615C009D4205DB691C2046FFF796FF0028E9D01D
:10616C005427266862687D432E447A43521B31467D
:10617C00F01902F08FFE3A462BA9304602F07CFE55
:10618C00636801336360BCE78842F8B504460D468A
:10619C00164614D9904213D2A2F10806751AA1F131
:1061AC0008072C44B74218D01CB131462046FFF7E3
:1061BC0079FD301DFDF7DBFF083E083CF2E70CD003
:1061CC00B5420AD01CB129462046FFF76BFD281DAD
:1061DC00FDF7CDFF08350834F2E7F8BD70B50E1E9B
:1061EC00054611DDF000FEF7F1FD044658B1D5E986
:1061FC00001201EBC202FFF7C7FF2868FEF7EEFDA5
:10620C002C60AE60012070BD0024F6E72DE9F04152
:10621C000023C0E9003383600D4649689942044667
:10622C0013DDFFF7DBFF80B1D5E90063276806EBD0
:10623C00C308B04507D01FB131463846FFF732FDD1
:10624C0008360837F5E76B6863602046BDE8F081D7
:10625C0038B50B689B7A05460C4633B90846FEF7F1
:10626C0085FE10B9236801229A72216828460C31E8
:10627C00FFF7CCFF284638BD73B504464568684621
:10628C00FFF710FDD4E90113994210DA2368626814
:10629C0003EBC50503EBC202294605F10800FFF725
:1062AC0073FF8DB9636801336360012606E0013129
:1062BC002046FFF793FF06460028E7D101A8FDF71B
:1062CC0056FF304602B070BD69462846FFF7EAFC1F
:1062DC00E8E700002DE9F043DFF88080DFF88090DC
:1062EC008DB004460F4600262368B34233D902A86A
:1062FC00FFF79CFA1C256168029875432944043108
:10630C00FEF787FF6368029A2B4402A91B8B9382CA
:10631C0063681D446B8BD382386800F10C0504A8AC
:10632C00FFF7C0FC284604A9FFF7A6FF054605A801
:10633C00FDF71DFF55B92023CDE90435CDF80080BC
:10634C002B4604AA49463220FEF784FC03A8FDF72D
:10635C000EFF0136C8E70DB0BDE8F083FC930D00CD
:10636C0038930D008842F8B504460D46164614D9EC
:10637C00904213D2A2F10806751AA1F108072C4419
:10638C00B74218D01CB131462046FFF77DFC301DBA
:10639C00FDF7EDFE083E083CF2E70CD0B5420AD002
:1063AC001CB129462046FFF76FFC281DFDF7DFFEC8
:1063BC0008350834F2E7F8BD70B50E1E054611DD40
:1063CC00F000FEF703FD044658B1D5E9001201EBCD
:1063DC00C202FFF7C7FF2868FEF700FD2C60AE6015
:1063EC00012070BD0024F6E72DE9F0410023C0E93F
:1063FC00003383600D4649689942044613DDFFF76C
:10640C00DBFF80B1D5E90063276806EBC308B04514
:10641C0007D01FB131463846FFF736FC083608372F
:10642C00F5E76B6863602046BDE8F08130B50B681A
:10643C009B7A85B005460C462BB901A8FFF708FFDF
:10644C0001A8FFF747FC2368DB7A3BB9214601A87A
:10645C00FFF72AFA10B923680122DA72216828465C
:10646C001831FFF7C1FF284605B030BD2DE9F043C8
:10647C0091B005460F460868496805929846384B16
:10648C0002934FF0000903AB08AC03C483E803008C
:10649C00CDE90699FFF724FB324B0693FFF720FB5F
:1064AC002968036807934A4602A8FEF7B7FA08AEB4
:1064BC00044638B12B684FF6FF721A80204611B093
:1064CC00BDE8F08339462846FFF7B2FAFFF708FB20
:1064DC002946076851F8043B0893183709A8FFF7B9
:1064EC00CCFB31463846FFF7ECFC074609A8FDF714
:1064FC003EFE2023CDE9083497B91B4B1B49009372
:10650C00324623463220FEF7A5FB2B68214618881D
:10651C00174CFEF733FA2B684FF6FF721A80CDE753
:10652C00144B00931149234632460120FEF792FB8F
:10653C00B8F1000FC2D029463046FFF777FFDDE9EE
:10654C00085305EBC307AF4205D028460121FFF7DE
:10655C002FF90835F7E73046FFF7CEFBAEE700BF63
:10656C00010018004D5F0D0021940D0038930D00B3
:10657C00FCFEFFFF3D940D0013B50446CDE900323F
:10658C00FFF7FEF9009B019900222046FFF76EFFF2
:10659C00204602B010BD73B5044645686846FFF747
:1065AC0073FBD4E90113994210DA2368626803EB98
:1065BC00C50503EBC202294605F10800FFF7D2FE20
:1065CC008DB9636801336360012606E00131204612
:1065DC00FFF7F2FE06460028E7D101A8FDF7C7FD3C
:1065EC00304602B070BD69462846FFF74DFBE8E720
:1065FC002DE9F043DFF80481DFF804918DB00446F7
:10660C000F4600262368B34275D902A8FFF744F859
:10661C00029B22895A80636802982A2575432B4471
:10662C0014305B7E13F0020F1EBF10F8103C43F0C9
:10663C00020300F8103C63682B445B7E5B0742BF8F
:10664C0010F8103C43F0040300F8103C63682B4432
:10665C005B7E190742BF10F8103C43F0080300F8AA
:10666C00103C63682B445B7EDA0642BF10F8103C8A
:10667C0043F0100300F8103C63682B445B7E9B06D0
:10668C0042BF10F8103C43F0200300F8103C616846
:10669C0029440431FEF7BDFD6368029A1D4402A92A
:1066AC00EB8B13812B8C53816B8C9381AB8CD381B3
:1066BC00EB8C13822B8D5382386800F1180504A8DB
:1066CC00FFF7E2FA284604A9FFF765FF054605A87F
:1066DC00FDF74DFD55B92023CDE90435CDF80080EB
:1066EC002B4604AA49463220FEF7B4FA03A8FDF75C
:1066FC003EFD013686E70DB0BDE8F0835A940D00DF
:10670C0038930D002DE9F04F1646A1B080460AA82B
:10671C000D46FEF77BFC3468237953B9314640466D
:10672C00FFF7B2FA0AA8FEF77FFC404621B0BDE89D
:10673C00F08F2B68D3E9037307EBC303039304F1C6
:10674C00280904F1140B039B9F4221D0D7F800A019
:10675C0058460AF11401FEF768FDB8B10AF1280198
:10676C004846FEF762FD88B12368DAF800205340F2
:10677C0033F47F430AD12022CDE91523584A0092E5
:10678C0015AA58493220FEF765FAC7E70837DAE749
:10679C004846FEF7E3FC18B953494846FEF720FD7E
:1067AC002B68D3E9007307EBC30B5F45BA46494628
:1067BC006AD057F8080BFEF738FD0028F5D004F125
:1067CC0014073846FEF7CAFC68B9484B46491A8884
:1067DC00013292B21A8015A80123FEF7B5FC15A957
:1067EC003846FEF7F0FC2822002116A802F06CFBBC
:1067FC003F4B1593394604A8FEF7C2FC04AB18AA0C
:10680C000DF1200C18685968174603C70833634507
:10681C003A46F7D11868386023798DF85830DAF891
:10682C0000309B8AADF87430E36B1793314B002228
:10683C00A11D15A8CDE91E34FEF7FAF800287FF447
:10684C006DAF012323702C6831460C340DA8FFF773
:10685C001BFA20460DA9FFF79EFE04460EA8FDF775
:10686C0086FC002C7FF45AAF2023CDE90D34224B4B
:10687C0000930DAA234684E731464046FFF704FAFD
:10688C000CA8FDF774FC4DE70BA8FEF7E9FF494691
:10689C0015A8FEF775FC0B9A0023143215A90120DC
:1068AC00FEF776F80028E7D12F680BA90DA8FFF7A3
:1068BC00F9F938460DA9FFF7DFFC07460EA8FDF7DE
:1068CC0056FC002FD8D02A685368126803F1005385
:1068DC00013B0CA802EBC30AFDF749FC6FE700BFB4
:1068EC0086940D0038930D0044950D002CE6032082
:1068FC0001002C002D5B0D00B1940D0010B5064C61
:10690C00002320462360FEF7C5F82046034A0449BD
:10691C00BDE8104002F076B930E60320E8DE032033
:10692C003D4F0D0070470020704710B510210446F4
:10693C0002F06DF9204610BD08B5FFF7F6FF08BD53
:10694C0010B58368044613B10322014698472046CC
:10695C0010BD30B500224FF69C74026084808D8887
:10696C008C800C68858004600A6030BD10B50446CC
:10697C000068FEF733FA204610BD38B5C468F4B190
:10698C002378022B03D104F10C00FFF7EFFF6568AD
:10699C0035B12846FFF7D4FF1021284602F037F90D
:1069AC00A56835B12846FFF7CBFF1021284602F029
:1069BC002EF920461421BDE8384002F028B938BD24
:1069CC0073B50E46044656F8043B00930D4601A8D9
:1069DC003146FFF752F9019A009B6260236001A8CF
:1069EC00002301930093FDF7C2FB3046FDF7BFFB7C
:1069FC002846082102F00BF9204602B070BD13B5F1
:106A0C000B460246D0E900016C4684E8030093E88B
:106A1C00030082E8030094E8030083E8030002B05B
:106A2C0010BD826810B50AB902F0F5F8BDE8104047
:106A3C00C368184708B5006800F11001FFF7F1FFB3
:106A4C0008BD826810B50AB902F0E5F8BDE810403F
:106A5C00C368184708B5006800F11001FFF7F1FF93
:106A6C0008BD000038B500230446036010200D4615
:106A7C00FDF709FB28B10123C0E90133024B036088
:106A8C00C5602060204638BD6C950D0038B50023DC
:106A9C0083608B6804460D462BB102229847EB6845
:106AAC00E360AB68A360204638BD0000F0B589B048
:106ABC0004686846FFF74DFF4FF00203D4E84F2FF0
:106ACC00002A03D1C4E8413F0029F7D125D104F1B4
:106ADC000C0569462846FFF73CFFBFF35B8F01238B
:106AEC006370002004F10803BFF35B8F53E8006F61
:106AFC0043E80002002AF9D1BFF35B8F6EB1FEF7B9
:106B0C00D9F878B129463046FFF78BFF3046FFF7AE
:106B1C0017FF1021304602F07AF86846FFF726FF7F
:106B2C0009B0F0BD314602A8FFF7B0FFE068B4F938
:106B3C00105008B102F01EFA06901020ADF81C504F
:106B4C00FDF7A1FA0546E8B1002787601820FDF78C
:106B5C009AFA044688B10146876002A8FFF74FFFF6
:106B6C00049BA268A360059B049206A9E268E360FB
:106B7C0004F110000592FFF7ECFE084BEB60084B9C
:106B8C002C60AB6006A8FFF7F1FE02A8FFF7D8FE59
:106B9C00002229460348FEF795F8B7E7416A0D0035
:106BAC00D96C0D004F4E0D002DE9F0478AB005460B
:106BBC009DF848900C4617469846FEF79FF807AE8E
:106BCC00824638BB4FF62E73059005A93046ADF8BA
:106BDC001830FFF7BEFE1420FDF755FA044648B1F5
:106BEC00022303700123C0E901AA437031460C3023
:106BFC00FFF7AFFE2846214640F8044BFFF732FF63
:106C0C003046FFF7B3FE05A8FFF7B0FE28460AB0E2
:106C1C00BDE8F0870C234FF0000A1420CDE908AA38
:106C2C000793FDF730FA014628B1C0E901AA80F8B4
:106C3C0000A080F801A004A80391FFF713FF224BDA
:106C4C0008930820FDF71FFA824628B1039B40F8F1
:106C5C00043B04A9FFF711F800965FFA89F342464A
:106C6C0039462046CDF824A0FEF750F8B8B9039B5E
:106C7C005B7803F0FF0293B94FF69C7305A903A848
:106C8C000592ADF81830FFF711FF05A8FFF76EFE5F
:106C9C0005A80999FFF794FE06A8FDF768FA039B6F
:106CAC00059304A906A8FEF7E8FF059B069A2B603E
:106CBC006A60002306A806930593FDF758FA04A80A
:106CCC00FDF755FAA2E700BF9D6D0D00022AF8B53D
:106CDC00054607D0032A18D0012A01D10B6803609E
:106CEC000020F8BD18200E68FDF7CDF9044650B110
:106CFC003146FFF7CBFE3069B6F9147008B102F0DB
:106D0C0039F92061A7822C60EAE70468002CE7D0EF
:106D1C0004F11000FFF72AFE2046FFF711FE1821A0
:106D2C00204601F074FFDBE738B5002383608B68E5
:106D3C0004460D462BB102229847EB68E360AB6822
:106D4C00A360204638BD022A70B5044607D0032A3A
:106D5C0012D0012A01D10B680360002070BD1420F1
:106D6C000E68FDF790F9054620B13146FFF7DCFFC0
:106D7C00337C2B742560F0E70468002CEDD02046A2
:106D8C00FFF7DEFD1421204601F041FFE5E700008E
:106D9C00F0B589B004460D4601A81146FFF710FE68
:106DAC00A4B124B21DB1284602F0E4F8054601A8AE
:106DBC0003A90395ADF81040FFF778FE03A8FFF781
:106DCC00D5FD02A8FDF7D3F909B0F0BD019D012353
:106DDC00D5E84F2F002A03D1C5E8413F0029F7D150
:106DEC00EFD12B73BFF35B8F6B702B1DBFF35B8FDE
:106DFC0053E8006F43E80042002AF9D1BFF35B8FE0
:106E0C00002EDED02046FDF755FF074660B105F198
:106E1C000C013046FFF715FE3046FFF791FD1021AF
:106E2C00304601F0F4FECCE7314603A8FFF77CFFB7
:106E3C002B7B8DF81C301020FDF725F90546D0B1C1
:106E4C0087601420FDF71FF9044678B1876001466E
:106E5C0003A8FFF7D4FD059BA268A360069B0592CF
:106E6C00E268E3609DF81C3006922374064BEB60DD
:106E7C00064B2C60AB6003A8FFF762FD002229468D
:106E8C000348FDF71FFFC7E7616A0D00536D0D0046
:106E9C004F4E0D00002240681146FDF77FBF0022C7
:106EAC0040681146FDF78ABF40680022FDF77EBF9F
:106EBC004068002281F00101FDF768BF00234068A3
:106ECC001A461946FDF75ABF002340681A46194660
:106EDC00FDF74CBF002240681146FDF73FBF002272
:106EEC0040681146FDF72ABF406800220221FDF7D9
:106EFC002DBF002340681A46FDF718BF024B032232
:106F0C005A60024A1A60704738E6032088950D00D3
:106F1C00704710B51821044601F079FE204610BDCB
:106F2C00F0B5037D062B8DB00E4600F104074FF033
:106F3C00000412D000F1080515F8011D0A22304694
:106F4C0001F0D7FAAF42044419D0002CF4D02E2112
:106F5C00304601F0BFFA0444EEE72F236A46394667
:106F6C000A208DF80040FDF7CDFD684602F01FF8B1
:106F7C0033680246DB68694630469847044620462B
:106F8C000DB0F0BD10B5054B0446112240F8043B82
:106F9C00002101F099FF204610BD00BFBC950D00EB
:106FAC000346074A10B543F8042B01F1100251F8BF
:106FBC00044B43F8044B9142F9D10A781A7010BD76
:106FCC00BC950D0010B59DF8084044EA032343EA34
:106FDC00024242EA016104234160037510BD13B5FE
:106FEC00CB7800938B784A780978FFF7EBFF02B0E7
:106FFC0010BD00F11003012213F8101C01291846D2
:10700C0008D153F8041C02EB4102013A03F11003BE
:10701C00F2D17047022904BF53F8041C5218F4E74C
:10702C000EB4F0B588B000AF07F13405102155F857
:10703C00042B7A6004462B467818FD60FDF7DEFEC3
:10704C000F287A681AD900F1080323F007036E465B
:10705C00ADEB030D411C2B466846FD60FDF7CEFEE3
:10706C00021E04DD236869469B6820469847B54696
:10707C002037BD46BDE8F04003B070470028F7D07C
:10708C00236802469B6807F1100120469847EFE7FA
:10709C0010B5036804469B689847A368013BA3603E
:1070AC002BB923682046DB68BDE81040184710BD9B
:1070BC0007B503688DF807109B6801220DF10701D5
:1070CC00984703B05DF804FB38B50B6803604D6856
:1070DC0043689D4204460CD015B16B6801336B605C
:1070EC00606828B14368013B43600BB9FFF7D0FFE0
:1070FC006560204638BD0B461146002210B5C0E92C
:10710C000022044683600BB9204610BDFFF7DCFF5C
:10711C00FAE78368EBB11A78032A1AD8DFE802F091
:10712C000417021B0520704702685B685268D05C2C
:10713C002D2812D0A0F13003092B0ED974280ED0B3
:10714C0066280CD0A0F16E035842584170470620B7
:10715C0070470020704704207047032070470220BE
:10716C00704710B50446FFF7D4FF02280ED0C31E9B
:10717C00DBB2012B14D82268A36850685B68BDE8A9
:10718C0010400A220021184401F0C6BF2268A368EF
:10719C0052685B68D05CA0F174035842584110BD32
:1071AC000020FCE738B50023C0E9003304460E4844
:1071BC00C4E90203A9B10B78032B06D08BB9136871
:1071CC0058684B68C35C6E2B07D013684D685868C1
:1071DC008B6828445B1BA060E36011462046FFF7D8
:1071EC0073FF204638BD00BF27960D0038B500252B
:1071FC000B46C0E90055C0E90255C0E904550446E8
:10720C0011464BB11A78012A06D103F11002DB6842
:10721C0082604361FFF758FF204638BD10B54369C3
:10722C00044663B18068E060013B1030A0602061CF
:10723C00636113B1FFF7DDFEA060012000E018468A
:10724C0010BD10B57D210446FFF732FF01232371D9
:10725C00204610BD08B50379012B02D0022B04D0B7
:10726C0008BD2C21FFF724FFFAE73A21FAE710B505
:10727C000446FFF7EFFF20467B21FFF719FF0023A1
:10728C002371204610BD000013B504460191FFF791
:10729C00E1FF2368019ADB680349204698470123E4
:1072AC002046237102B010BDC8950D0013B50446DD
:1072BC000191FFF7CFFF2368019ADB680349204651
:1072CC00984701232046237102B010BDCB950D00C9
:1072DC002DE9F0410D4617462221DFF8A080044627
:1072EC002F44FFF7E5FE2946BD422A4638D015F853
:1072FC00016B222E03D05C2E01D01F2EF4D82368F4
:10730C00521A9B68204698475C212046FFF7D0FE16
:10731C000D2E0AD8072E1CD9A6F10803052B18D858
:10732C00DFE803F00D0F11171315222E01D05C2E80
:10733C000FD131462046FFF7BBFE2946D4E7622128
:10734C00F8E77421F6E76E21F4E76621F2E7722183
:10735C00F0E723683246DB68414620469847ECE765
:10736C008D4204D023686A1A9B68204698472221D4
:10737C002046FFF79DFEBDE8F08100BFCE950D00C5
:10738C0013B50446CDE90021FFF764FF2046DDE983
:10739C000021FFF79DFF02232046237102B010BD90
:1073AC0013B50446CDE90021FFF754FF2046DDE973
:1073BC000021FFF78DFF01232046237102B010BD81
:1073CC0080680368DB6818477047084611B10B6882
:1073DC005B681847704770477047704738B504466C
:1073EC000D4600682E2101F0A8FD2368C31A2B60FE
:1073FC0023B1037803B1013023682060184638BDEF
:10740C0010B50C21044601F002FC204610BD10B54D
:10741C000421044601F0FBFB204610BD10B50421ED
:10742C00044601F0F4FB204610BD08B501F08FFDB9
:10743C00B0FA80F0400908BD10B50C4601F0E8FA2E
:10744C00844210D001F058FA844205D101F054FA6C
:10745C00BDE8104001F04DBA2CB1236820465B68A2
:10746C00BDE81040184710BD13B5044608460191FD
:10747C0001F09DFD01990246204602B0BDE8104086
:10748C00FFF78EBF13B504460846019101F08FFD3E
:10749C0023680199DB680246204602B0BDE8104023
:1074AC00184707B503688DF80710DB6801220DF14A
:1074BC000701984703B05DF804FB0EB403B503ABAA
:1074CC00002153F8042B006A019301F030F802B04C
:1074DC005DF804EB03B070472DE9F74FD0E9009548
:1074EC004FF0140808FB05F50093AB10184D174628
:1074FC005D434C46002D23DD6E1008FB06F004EBBB
:10750C00000A3A46BAF804B0205801915F4528BFEA
:10751C005A4601F054FD0199012378B95F4503D116
:10752C00009A13703546E5E78CBF01200020002837
:10753C00F8D0AE1B0AF11404013EF3E7C00FF6E7D6
:10754C00A4EB09040248A410604303B0BDE8F08F1B
:10755C00CDCCCCCC7FB50369067E01910BB301B3C6
:10756C00002500F10C04039503A901A8FFF736FFD1
:10757C000146B0B10DF10B03039A8DF80B50204668
:10758C00FFF7AAFF9DF80B305BB12468142303FBB3
:10759C00004000F10804B0F90630002BA8BFDEB2A1
:1075AC00E2E7304604B070BD10B50A4C2378BFF347
:1075BC005B8FDB070BD42046FCF774FD38B12046FB
:1075CC00FCF775FD044A0549054801F01BFB04480E
:1075DC0010BD00BF44E60320E8DE0320E5730D0078
:1075EC0078DE032010B50A4C2378BFF35B8FDB07E2
:1075FC000BD42046FCF756FD38B12046FCF757FD5E
:10760C00044A0549054801F0FDFA044810BD00BFC5
:10761C0048E60320E8DE0320E3730D007CDE032044
:10762C0038B500250446C0E90055C0E9045585600D
:10763C00856140F8245FFDF72DFAFFF7B5FFE06197
:10764C00FFF7D0FF25732062204638BD10B50B4CD8
:10765C002378BFF35B8FDB070ED42046FCF722FDAB
:10766C0050B10748FFF7DCFF2046FCF720FD054A28
:10767C000549034801F0C6FA014810BD40E6032055
:10768C0050E60320E8DE0320ED7A0D00024A0349A0
:10769C0003480023FDF7F6BAC9790D0055790D00A2
:1076AC00D5780D0000231A4619461846FDF7EABA9C
:1076BC0037B50D6951F8043B0093044601A8FEF759
:1076CC00DCFA6A4629462046FFF715FD01A8FCF7AF
:1076DC004EFD204603B030BD37B58D6851F8043BE4
:1076EC000093044601A8FEF7C8FA6A4629462046CC
:1076FC00FFF77CFD01A8FCF73AFD204603B030BD36
:10770C0037B5CD6851F8043B0093044601A8FEF749
:10771C00B4FA6A4629462046FFF744FD01A8FCF757
:10772C0026FD204603B030BD70B58AB00D4601462B
:10773C0004A8FFF7D1FF144E04A8FFF76FFDE8B1C2
:10774C0004A96846FFF7DCFF02983146FFF76DFE8F
:10775C00044610B12C1E18BF012401A8FCF707FD2C
:10776C00002CE9D004A96846FFF7A2FF6846FFF792
:10777C00F8FC286001A8FCF7FAFCDDE705A8FCF78B
:10778C00F6FC0AB070BD00BFD4950D0037B50C46A1
:10779C0020461249154601F0DAFB48B901F038F9D8
:1077AC004FF4165101F024F901F032F903B030BD59
:1077BC000B49204601F0CBFB70B94FF4165301A9CD
:1077CC0028460193FFF7B0FF01F096F8019901F0FC
:1077DC008DF801F091F8E9E70020E7E7E7910D005B
:1077EC00D9950D0070B5D0E900531426044606FB5C
:1077FC000356AE4205D005F10800FFF7F3FF143530
:10780C00F7E72068FDF7EAFA204670BD70B5D0E9BD
:10781C000053044605EB0316AE4204D0284600F094
:10782C00CBFE1035F8E72068FDF7D8FA204670BD7E
:10783C0010B504460C30FFF7D5FF2046FFF7E6FFE6
:10784C00204610BD10B5044B044640F8043BFFF72E
:10785C00EFFF204610BD00BF10930D0010B504467D
:10786C00FFF7F0FF2046242101F0D1F9204610BD8E
:10787C0010B5034B03600446FFF7E4FF204610BD30
:10788C0078960D0010B50446FFF7F2FF2046242130
:10789C0001F0BDF9204610BD0022C0E9002210B550
:1078AC0082600C6804604C6844608C680A604A60B2
:1078BC0084608A6010BD10B5036804461868FDF733
:1078CC0001F9204610BD00002DE9F04F87B080462D
:1078DC0003931C4B5B68C3F30803894616466BB9CC
:1078EC00FFF7B4FE044600F12403406A0593FDF74C
:1078FC00E1F8237B2BB105A8FFF7DDFF07B0BDE84E
:10790C00F08F01232373D4E900535FFA89F905EB57
:10791C00830AAA4512D055F8047B3146381DFFF76F
:10792C0019FE8145F5D33B68039A0092D3F808B051
:10793C004A46334641463846D847EAE70023237384
:10794C00D9E700BF00ED00E02DE9F74F9B461A4B3D
:10795C005B68C3F308038046894616466BB9FFF78C
:10796C0075FE044600F12403406A0193FDF7A2F86A
:10797C00237B2BB101A8FFF79EFF03B0BDE8F08F6E
:10798C0001232373D4E90053F6B205EB830A554562
:10799C000ED055F8047B5946381DFFF7DBFD8642A7
:1079AC00F5D33B684A46DB68414638469847EEE7D4
:1079BC0000232373DEE700BF00ED00E02DE9F34167
:1079CC00164B5B68C3F3080305460F461BBBFFF75A
:1079DC003DFE00F124030446406A0193FDF76AF86A
:1079EC00D4E90063462406EB8308B04509D101A80D
:1079FC00FFF761FFA542B4BF0020012002B0BDE833
:107A0C00F08156F8040B39460430FFF7A3FD84428D
:107A1C00A8BF0446E9E70020F0E700BF00ED00E056
:107A2C0070B50446D0E900020B4600EB820282429C
:107A3C0007D001461D6851F8046BAE4203D00846CE
:107A4C00F5E7002070BD521A01F024FA6368013B7F
:107A5C0063600120F6E71FB500F124030446406A79
:107A6C0001910393FDF726F801A92046FFF7D8FFF3
:107A7C0018B163680BB9FFF715FE03A8FFF71BFFDE
:107A8C0004B010BD70B5D0E904561823044603FBAE
:107A9C000656AE4215D005F110012046FFF7C0FF87
:107AAC0063680BB9FFF7FEFDE06929690368DB68C1
:107ABC009847696919B1206A0368DB6898471835DB
:107ACC00E7E7D4E90453182606FB0356AE4204D06C
:107ADC00284600F071FD1835F8E70023636170BD8E
:107AEC0073B50446FFF7DEFD04F12403606A0193CD
:107AFC00FCF7E0FF2046FFF7C5FF01A8FFF7DBFE10
:107B0C00606A08B1FCF7CEFFD4E90453182606FBD3
:107B1C000356AE4204D0284600F04EFD1835F8E767
:107B2C002069FDF75BF92068FDF758F9204602B093
:107B3C0070BD8842F8B506460C46154627D99042CA
:107B4C0026D2A2F114056C1AA1F1140704440026E4
:107B5C00AF423DD0A4B12B682360AB88A380B5F9AC
:107B6C000630E380C4E902662661AB68A360AE60B0
:107B7C00E368EA68E260EB6023692A6922612B61A1
:107B8C0005F10800FFF72EFE143D143CE0E71FD072
:107B9C000027AC421CD0A6B123683360A388B38005
:107BAC00B4F90630F380C6E902773761A368B36095
:107BBC00A760F368E268F260E360336922693261BE
:107BCC00236104F10800FFF70DFE14341436E0E7CE
:107BDC00F8BDF8B5D0E901539D4204460E46174650
:107BEC000DDB0135002D006804DDA900FDF7FEF862
:107BFC0018B9F8BDFDF7F2F800202060A5602568E3
:107C0C00626805EB86019200A2EB8602081D01F06A
:107C1C0041F945F826706368013363600120E8E799
:107C2C0037B500F124030446406A01930D46FCF776
:107C3C0041FFD4E9003103EB810083421A460BD09B
:107C4C001268AA4203F10403F7D101A8FFF733FE2F
:107C5C000025284603B030BD2A462046FFF7B9FF61
:107C6C0005460028F1D06368012B01D1FFF70EFD0A
:107C7C0001A8FFF720FEECE78842F8B504460D4654
:107C8C00164614D9904213D2A2F11006751AA1F11E
:107C9C0010072C44B74218D01CB13146204600F0D6
:107CAC0007FD304600F088FC103E103CF2E70CD08B
:107CBC00B5420AD01CB12946204600F0F9FC2846F2
:107CCC0000F07AFC10351034F2E7F8BD70B50E1EDA
:107CDC00054611DD3001FDF779F8044658B1D5E9B8
:107CEC00001201EB0212FFF7C7FF2868FDF776F8C8
:107CFC002C60AE60012070BD0024F6E72DE9F04F3A
:107D0C00914697B000230391D9F804100C934622A6
:107D1C009942C0E90033C0E90233C0E90433CDE92C
:107D2C000A330446027623DCD9E90057142303FBFB
:107D3C000757AF423BD029460DA800F0B9FC0DA95E
:107D4C0011A80B9E00F0B4FCDDE90B1399421BDA71
:107D5C000A9B0B9A03EB061603EB0212314606F153
:107D6C001000FFF789FFEEB90B9B01330B9311E069
:107D7C000AA8FFF7ABFF0028D6D10AA8FFF746FDEB
:107D8C00204617B0BDE8F08F01310AA8FFF79EFF1F
:107D9C000028DDD111A800F00FFC0DA800F00CFCA0
:107DAC001435C6E711A9304600F082FCDCE700264A
:107DBC00CDE90D660F9637464FF0140ADDE90A231C
:107DCC009E4280F297803301D35808930BB9013649
:107DDC00F4E70AFB06F3099702930DAD09A908A86D
:107DEC00FFF7FCFA83460028F1D00146099A8DF87A
:107DFC001F700DF11F032846FFF76EFB9DF81F80C7
:107E0C000190B8F1000F66D1BDF82430ADF84830C0
:107E1C00CDE913884FF6FF73CDF844B0ADF84A3076
:107E2C00CDF85480D5E9013293421ADB03F1010BF2
:107E3C00BBF1000F4ADD0AFB0BF0FCF7C7FF049007
:107E4C00002845D0D5E900120AFB0212FFF771FE9B
:107E5C00049B28680493FCF7C1FF049B2B60C5F8B6
:107E6C0008B0019BD5F800B06A680AFB03F30BEB72
:107E7C00030101F114000AFB02B204910593FFF710
:107E8C0058FE0499A9B1059B119A4BF80320BDF833
:107E9C0048308B80BDF94A30CB80C1E902770F6145
:107EAC00139B8B60149B1397CB60159B14970B61E2
:107EBC0015976B6801336B6013A8FFF793FCB8F14F
:107ECC00000F08D00DA8FFF78DFC56E74346C0E71E
:107EDC004FF00108F0E7019B2D680AFB0355089B46
:107EEC001B782BB9D9F80030029A13441B7CEB8019
:107EFC00083573E72168226062686360A3680B929F
:107F0C000C9A0C93E368A2600D9A0D932369E260BE
:107F1C000E9A0E93636922610F9A0F93039B0A9139
:107F2C0062612376CEE700007FB50546094B45F824
:107F3C00043B04460E4601A81146FCF7DEFB01AAE1
:107F4C0031462846FFF7DAFE01A8FCF773FB204602
:107F5C0004B070BD10930D00F0B50F4687B02649E4
:107F6C000C9C384616461D4600F0F1FF00BBE4B1F0
:107F7C0029466846FFF790FC2049242000F049FE72
:107F8C00054670B1694603A8FCF7B7FB03AA314656
:107F9C002846FFF7C9FF03A8FCF74CFB184B2C62D3
:107FAC002B606846FCF746FB2C46204607B0F0BD1C
:107FBC001449384600F0CBFFE0B9002CF5D0294627
:107FCC006846FFF769FC0D49242000F022FE0546A7
:107FDC000028E6D0694603A8FCF78FFB03AA3146BC
:107FEC002846FFF7A1FF03A8FCF724FB064B2B60E8
:107FFC002C62D6E70024D8E7E1950D009C970D0084
:10800C0078960D00E5950D0060960D00014B024A27
:10801C001A6070474CE60320F6950D002DE9F047E9
:10802C00089DD0F8209004460E461746984600F05E
:10803C00EFFC81454CD02B79190704D56A6954495A
:10804C002046FFF73AFAB8F1000F0DD05B2120461D
:10805C00FFF727FA41462046FFF714FA23684D49EB
:10806C00DB680222204698472B79DA0723D5D5F80E
:10807C0008802F21404600F0C1FF08B100F1010833
:10808C0041462046FFF7FEF92B799B0708D53A218C
:10809C002046FFF706FAEA683F492046FFF70DFA3B
:1080AC002A79236812F0040FDB6814BF3B493C4962
:1080BC000222204698472B7958071DD529690B4673
:1080CC001A4613F8010B60B1202808D11946F7E7BE
:1080DC00344800F05EF90028ADD0BDE8F0872828C0
:1080EC00EED12368521ADB682046984723682E4944
:1080FC00DB6804222046984700213846FCF7BAFD7D
:10810C0001462046FFF7BEF923682549DB680222A9
:10811C00204698471EB131462046FFF7B3F92B791C
:10812C0013F0300F2CD023682049DB680222204644
:10813C0098472B79D9060AD523681D49DB68072295
:10814C0020469847AA691B492046FFF7B6F92B79B8
:10815C009A0611D5DB0605D523681049DB68022287
:10816C002046984723681449DB6820460A22984722
:10817C00E9692046FFF786F95D212046FFF791F962
:10818C0023680E49DB6820460222BDE8F0471847F9
:10819C00FA950D0001960D00C8950D0004960D0082
:1081AC0009960D0078E6032007960D000C960D003D
:1081BC000F960D0017960D001A960D0025960D00C2
:1081CC002DE9F04385B0D0F820900C9C05460F4665
:1081DC0090461E4600F01CFC814505D1494800F034
:1081EC00D8F8002840F08A802B6A474A01924FF059
:1081FC00000901A803938DF80890FFF738F8494659
:10820C004046FCF737FD41498046012201A8FFF7A3
:10821C00B7F84146FFF728F93FB13D49012201A8C3
:10822C00FFF7AEF83946FFF71FF93EB13949012285
:10823C0001A8FFF7A5F83146FFF716F92379DF07F8
:10824C000ED5A6682F21304600F0D8FE00B1461C92
:10825C003149012201A8FFF793F83146FFF704F9E1
:10826C0023799E0707D52D49022201A8FFF788F82C
:10827C00E168FFF709F82379580714D526693346C6
:10828C001F4613F8012B2AB1202A01D11E46F7E70D
:10829C00282AF5D12249022201A8FFF771F8BA1B4E
:1082AC003146FFF77DF82379190707D51D490122BF
:1082BC0001A8FFF765F86169FEF7F8FF2379DA0684
:1082CC0008D5042218490DEB0200FFF759F8A169F3
:1082DC00FEF7DAFF23799B0607D51449062201A87D
:1082EC00FFF74EF8E169FFF7BFF801A8FEF7A9FF09
:1082FC00286A0F4903680222DB68984705B0BDE87D
:10830C00F08300BF78E6032048960D00EC910D0039
:10831C0028960D002A960D002C960D002E960D0019
:10832C0031960D0090920D0034960D0039960D008B
:10833C0025960D00002340681A46FCF7F7BC4068F0
:10834C0000220221FCF702BD002240681146FCF716
:10835C00F5BC002240681146FCF700BD00234068C4
:10836C001A461946FCF702BD002340681A46194606
:10837C00FCF704BD4068002281F00101FCF706BD4A
:10838C0040680022FCF712BD002240681146FCF741
:10839C0015BD002240681146FCF700BD2DE9F043E5
:1083AC00002495B016460D460746FEF7EBFD214618
:1083BC0018220EA8009400F087FD4023CDE90C3460
:1083CC0021466B460CAA3046FCF7ACFB0446002851
:1083DC0046D1024601216868FCF7C0FC02218046A8
:1083EC0022466868FCF7BAFC009E81462146002EA6
:1083FC0036D0002934D17368022B03D00A2B0BD052
:10840C00F669F4E7B8F1000F04D07169384604310D
:10841C00FEF7E5FD4146F3E7B9F1000F01D14946FE
:10842C00EEE77469102201A800F04EFD06238DF8CA
:10843C00143001AD04F108031834186859682A4641
:10844C0003C20833A3421546F7D101A906A807AD0C
:10845C00FEF7A6FD0FCD3C1D0FC42B682370DEE785
:10846C000098FCF757FB384615B0BDE8F0830000C8
:10847C00024B034A1A6000225A60704778E60320C8
:10848C00C0960D00F8B506460D468F180024BD4267
:10849C000CD0336815F8011B9B6830469847031EB7
:1084AC0001DB1C44F3E7002C08BF1C462046F8BD3A
:1084BC0013B50446084659B1019100F078FD2368C4
:1084CC000199DB680246204602B0BDE8104018470F
:1084DC0002B010BD03689B68184738B50D210546DE
:1084EC00FFF7F8FF0A2104462846FFF7F3FF204464
:1084FC0038BD30B58BB000238DF82430012A98BFDD
:10850C000A2209AC0D46B1FBF2F101FB125303F048
:10851C00FF03092B94BF30333733DBB2AA4204F884
:10852C00013DEFD92146FFF7C3FF0BB030BD2DE95C
:10853C00F04186B000AF05460E46381D1421144696
:10854C003B60FCF75BFC13280ED8391D2846FFF75F
:10855C00AFFF04461EB12846FFF7BFFF0444204678
:10856C001837BD46BDE8F08100F1080323F007037E
:10857C00E846ADEB030D2246411C3B686846FCF710
:10858C003DFC69462846FFF793FF0446C546E1E7E4
:10859C0010B50446FEF7D4F9204610BD0348044A32
:1085AC0004490023836000F02DBB00BF80E603204C
:1085BC00E8DE03209D850D0010B504460068FCF72D
:1085CC000DFC204610BD10B50446006808B1FCF740
:1085DC0005FC0023C4E90133236010BD38B5044603
:1085EC000D4600680131FCF701FC10B1C4E900052F
:1085FC00012038BD10B50368044623B143688B4293
:10860C0001D3012010BD2046FFF7E8FF0028F9D068
:10861C00A368002BF5D122681370F2E737B50D462D
:10862C00114601920446FFF7E5FF019A28B920464E
:10863C00FFF7C9FF204603B030BDA2602946206871
:10864C0000F01AFC2268A3680021D154F2E7002341
:10865C0013B5C0E9003304468360037341B1084687
:10866C00019100F0A4FC019902462046FFF7D6FFC9
:10867C00204602B010BD38B5054600680C4668B1FE
:10868C006A688B689A4207D3096800F06AFCA36891
:10869C00AB600023A36038BDFCF7A0FB23682B6004
:1086AC0063686B60A368AB600023C4E90033F1E737
:1086BC0010B50023C0E90033044683600373FFF751
:1086CC00DAFF204610BD884210B5044605D00B6871
:1086DC002BB18A681946FFF7A1FF204610BDFFF7A2
:1086EC0072FFFAE710B500230446C0E9003383603B
:1086FC000373FFF7E8FF204610BD13B5044659B1CC
:10870C000846019100F053FC019902462046FFF700
:10871C0085FF204602B010BDFFF755FFF9E770B595
:10872C0005460E4609B9002070BD6AB18468144430
:10873C002146FFF75FFF0028F5D02868AB6831466B
:10874C00184400F00EFCAC600120EDE707B50023E7
:10875C008DF80410012201A98DF80530FFF7DFFF19
:10876C0003B05DF804FB02680B46096862B141B9BD
:10877C00806860B110787047986840B109784842B9
:10878C007047104600F0E3BB0029F5D1084670474E
:10879C0008B582688B689A4205D1FFF7E4FFB0FAFE
:1087AC0080F0400908BD0020FCE708B582683AB9A2
:1087BC0021B10878B0FA80F0400900E0012008BD32
:1087CC00006809B90078F5E700F0C1FBF2E710B5D5
:1087DC000446006818B1FCF701FB0023236010BDB0
:1087EC0010B50446FFF7F3FF204610BD10B5094B3A
:1087FC00094C022200201A60084B2060A080A07156
:10880C00A360FCF747FA2046054A0649BDE810402C
:10881C0000F0F8B99CE6032090E603200000FFFF6F
:10882C00E8DE0320ED870D00024B1A68024B1A603C
:10883C00704700BF80DE0320A0E603207047417420
:10884C00704708B5007CFCF7ADF920EAE07008BD74
:10885C0008B5007CFCF786F920EAE07008BD08B585
:10886C00007CFCF78FF940EAE07008BD08B5007C8D
:10887C00FCF780F940EAE07008BD007CFCF78AB98F
:10888C0037B5457C04462DB1207C03B0BDE83040A3
:10889C00FCF760B9007C0191FCF784F90028019980
:1088AC00F2DC284603B030BD10B51421044600F0AC
:1088BC00AEF9204610BD000010B54FF0000C044678
:1088CC00084611464FF47A72C4E901C2044A226088
:1088DC000122207462741A46FCF72CF9204610BD54
:1088EC0010970D00007C0023FCF764B90022FFF701
:1088FC00F9BF007CFCF726B913B50E4C2178BFF3F9
:10890C005B8F11F0010112D120460191FBF7CAFBDC
:10891C00019960B1084A094B0948FFF7CDFF204681
:10892C00FBF7C5FB074A0849054800F06BF90448FA
:10893C0002B010BDA4E60320A8E603202CE7032018
:10894C00B0E70320E8DE032049880D00417470472E
:10895C00704708B50021007CFCF75CF940EAE07038
:10896C0008BD08B50121007CFCF754F940EAE07021
:10897C0008BD08B5007CFCF745F920EAE07008BD9D
:10898C0008B5007CFCF736F920EAE07008BD13B599
:10899C000446007C0191FCF735F90028019901DCB3
:1089AC00607C20B1207CFCF73DF920EAE07002B03D
:1089BC0010BD007CFCF73EB910B51421044600F044
:1089CC0026F9204610BD000010B54FF47A7304460A
:1089DC0008460021C4E90113044B236001232074D1
:1089EC0063741146FCF7EEF8204610BD40970D005D
:1089FC00007C0022FCF7EEB8007CFCF7F3B810B555
:108A0C0014220446002100F05FFA204610BD00003D
:108A1C0010B5104C88B003A8FFF7F1FF2178BFF315
:108A2C005B8F11F0010111D120460191FBF73AFB4C
:108A3C00019958B103AA0848FFF7C6FF2046FBF777
:108A4C0036FB064A0649044800F0DCF8024808B038
:108A5C0010BD00BFC4E70320C8E70320E8DE0320F5
:108A6C005D890D00002240681146FCF777B90022A1
:108A7C0040681146FCF792B9002240681146FCF799
:108A8C009DB940680022FCF791B94068002281F042
:108A9C000101FCF77BB9002340681A461946FCF724
:108AAC006DB9002340681A461946FCF75FB90022DD
:108ABC0040681146FCF742B9406800220221FCF7DD
:108ACC0045B9002340681A46FCF730B9024B042222
:108ADC005A60024A1A607047DCE7032070970D0059
:108AEC00014B1860704700BF84DE032008B50B4BA8
:108AFC0043B1FFF78DFF03681B699847002801DD20
:108B0C00AFF30080064B43B1FFF7F6FE03681B6919
:108B1C009847002801DDAFF3008008BD000000007D
:108B2C000000000008B5FFF7E1FFFBF7E3FF014B86
:108B3C00186008BDECE703200248034A0349121AE7
:108B4C0000F09AB900F4032004F40320C0990D003E
:108B5C0007B5002300931A466FF07701FCF7C4F8B1
:108B6C0003B05DF804FB000007B543880A2B08D05E
:108B7C00502B0BD1094B1B684BB103B05DF804EBC8
:108B8C001847FFF7E5FF03B05DF804FB00230093E3
:108B9C001A466FF07701FCF7A7F8F4E7E8E7032033
:108BAC0038B5124C1248134D0021FCF73FF92368DD
:108BBC00AB42114B0CBF012200221A7002D0FFF7FE
:108BCC00BBFF2560FBF786FF044600F085F90B4BD5
:108BDC0013B12046AFF3008000210848FCF79EF843
:108BEC00BDE8384006480021FCF774B800F40320B7
:108BFC00ED8A0D001E1C279AE4E7032000000000FC
:108C0C00758B0D000B460146184600F019B9FBF7A1
:108C1C003CBAFBF738BA08B5FCF7F8F8014900F094
:108C2C00F9B800BFB8970D007FB500241023CDE92B
:108C3C000234036800949E698DF8044015466B4617
:108C4C001268B0479DF8043003F00603062B03BFEF
:108C5C00009B2B600120204604B070BD0098904210
:108C6C0014BF01200620704710B5034B0360044667
:108C7C0000F0CDF8204610BDF8970D0010B5044655
:108C8C00FFF7F2FF20460821FFF7C1FF204610BD79
:108C9C002DE9F0411F46DDE90834DDF818809845D0
:108CAC000646154607D1079900F0B4F818B165715E
:108CBC000020BDE8F0813946304600F0ABF80028C2
:108CCC00F6D00123C4F800802571A371F0E738B504
:108CDC0015461C4600F09EF820B10823E3600623DD
:108CEC002560237138BD73B505460C4601921E46AE
:108CFC0000F090F850B9032E08D82368019A5B69EC
:108D0C002946204602B0BDE87040184702B070BD3D
:108D1C0010B5034B03600446FFF7A6FF204610BDB9
:108D2C0058980D0010B50446FFF7F2FF20460C21B1
:108D3C00FFF76DFF204610BDF7B5089F974205461B
:108D4C000E4614460AD0A86802680897156A314680
:108D5C002246AC4603B0BDE8F0406047194601938B
:108D6C0000F058F8019B0028EDD0062003B0F0BDB0
:108D7C002DE9F14F0D461946DDE90A4BDDE90CA64C
:108D8C0081461746984600F045F890B1002D3460A6
:108D9C00377109DB61198A450CBF06210121B171BC
:108DAC00002001B0BDE8F08F0235F9D10123B37179
:108DBC00F6E7544506D15946484600F02BF808B161
:108DCC007771EDE7D9F808000368CDE90CA6CDE979
:108DDC000A4BDC693A4643462946A44601B0BDE835
:108DEC00F04F60472DE9F04107460C4615461E46EC
:108DFC00FFF76DFF48B9B86803689F692A46334688
:108E0C002146BC46BDE8F0416047BDE8F0817047A3
:108E1C0000207047814208B50ED0406803782A2B99
:108E2C000CD049680B782A2B08BF013100F08FF861
:108E3C00B0FA80F0400908BD0120FCE70020FAE7F9
:108E4C0010B5054C13462CB10A4601460220AFF36F
:108E5C00008010BD2046FCE70000000030B5013951
:108E6C000024A24201D1002005E0035D01340D5D18
:108E7C00AB42F6D0581B30BD0A44914200F1FF338F
:108E8C0000D1704710B511F8014B03F8014F914216
:108E9C00F9D110BD884210B501EB020402D984420D
:108EAC00234607D8431EA14208D011F8012B03F822
:108EBC00012FF8E7024401468A4200D110BD13F895
:108ECC00014D02F8014DF7E702440346934200D1ED
:108EDC00704703F8011BF9E738B50D4B1D68AB6BF8
:108EEC0004467BB91820FBF771FF0A4A0A4BA863AA
:108EFC00C0E90023094B83600B23838101220023EB
:108F0C00C0E90423AB6B00221C615A6138BD00BF61
:108F1C0084DE03200E33CDAB34126DE6ECDE05009F
:108F2C00C9B2034610F8012B1AB18A42F9D118467E
:108F3C007047002918BF0023F9E710B50446FFF766
:108F4C00EFFF18B9204600F032F8204410BD10F89D
:108F5C00012B11F8013B012A28BF9A42F7D0D01AF5
:108F6C007047034611F8012B03F8012B002AF9D1A5
:108F7C0070470000024B0146186800F003B800BFB0
:108F8C0084DE032037B5044608460D4600F00FF882
:108F9C00421C114620460192FBF740FF044618B1D3
:108FAC00019A2946FFF768FF204603B030BD0346FF
:108FBC0013F8012B002AFBD1181A0138704710B591
:108FCC006AB10139841810F8013B11F8012F934252
:108FDC0003D1A04201D0002BF5D1981A10BD104638
:108FEC00FCE710B5024601448A42134601D1181A17
:108FFC0010BD1C780132002CF6D1F8E738B50346C9
:10900C000C4669B9BDE83840FFF78ABF431C0546DA
:10901C0021461846FFF784FF0028F7D1284638BDB3
:10902C000025F5E72DE9F0473A4E86468C4660461A
:10903C001CF8014BA55D15F00805F8D12D2C33D18A
:10904C009CF800404FF0010800F1020C002B5CD0A2
:10905C00102B0CD1302C0AD19CF8000000F0DF0052
:10906C0058284DD19CF8014010230CF1020C08F14A
:10907C000047013F0026B7FBF3F9304603FB197A92
:10908C00A4F13005092D18D82C46A34224DD751CFB
:10909C0007D081451DD301D1A2451ADB00FB03404B
:1090AC0001261CF8014BEBE72B2C08BF9CF8004069
:1090BC00A84608BF00F1020CC8E7A4F14105192D20
:1090CC0001D8373CE1E7A4F16105192D04D8573CD0
:1090DC00DBE74FF0FF36E4E7731C06D12223CEF812
:1090EC000030384642B9BDE8F087B8F1000F00D027
:1090FC004042002AF7D00EB10CF1FF311160F2E7BB
:10910C003024002BB3D10823B1E7302CA4D00A2390
:10911C00ADE700BF92980D0013460A46014602487F
:10912C000068FFF77FBF00BF84DE03201D400D00E9
:10913C0059400D0081400D0085400D0000000000DD
:10914C0048454C4C4F005350454349414C204D45EC
:10915C0053534147452052454345495645440053D6
:10916C0050454349414C204D4553534147450074AC
:10917C007570706572776172655F75706C6F616424
:10918C0000547570706572776172655F31332C5461
:10919C007570706572776172655F31342C547570BF
:1091AC00706572776172655F313500546172676505
:1091BC0074004E65775F4E616D6500616476657213
:1091CC00746973650053657269616C2044617461E4
:1091DC002052656365697665642000536572696128
:1091EC006C00727373693D256420616464726573ED
:1091FC00733D253032583A253032583A25303258A2
:10920C003A253032583A253032583A2530325820E7
:10921C000A004164766572746973696E67206E61C9
:10922C006D653A202573200A00737663436F756E63
:10923C0074203D202564200A00666F756E645365AA
:10924C00727669636555756964203D202558200A3E
:10925C0000547570706572776172655F31330054BC
:10926C007570706572776172655F31340046726536
:10927C0073685375726574795F5541525400636F0E
:10928C006E6E6563740036453430303030312D42AB
:10929C003541332D463339332D453041392D453544
:1092AC00304532344443434139450036453430303F
:1092BC003030322D423541332D463339332D453044
:1092CC0041392D453530453234444343413945000D
:1092DC0036453430303030332D423541332D463322
:1092EC0039332D453041392D4535304532344443E1
:1092FC00434139450074780072780000000000008A
:10930C000000000000000000000000009D400D0067
:10931C00C1400D000000000000000000E9400D00FD
:10932C001D410D0029800D00C3400D007769726945
:10933C006E672E626C65005374617274206469737D
:10934C00636F766572696E672073657276696365A3
:10935C00732E00537461727420646973636F766545
:10936C0072696E6720636861726163746572697398
:10937C00746963732E005065657220646576696349
:10938C0065206973206D697373696E67210046618E
:10939C00696C656420746F20617070656E642070F8
:1093AC006565722043656E7472616C2064657669C4
:1093BC0063652E00436F6E6E65637465642062791D
:1093CC002043656E7472616C206465766963652EEA
:1093DC0000446973636F6E6E6563746564206279B3
:1093EC002072656D6F7465206465766963652E0007
:1093FC004661696C656420746F20617070656E6481
:10940C0020646973636F7665726564207365727628
:10941C006963652E0043616E6E6F74206164642015
:10942C006E65772070656572206465766963652E5C
:10943C00004E6577207065726970686572616C208A
:10944C00697320636F6E6E65637465642E0046618C
:10945C00696C656420746F20617070656E64206443
:10946C006973636F766572656420636861726163AA
:10947C0074657269737469632E004475706C6963EA
:10948C006174656420636861726163746572697389
:10949C007469632063616E6E6F7420626520616411
:1094AC006465642E004661696C656420746F20618C
:1094BC007070656E64206C6F63616C2063686172A0
:1094CC00616374657269737469632E000000000037
:1094DC00000000007D4E0D00E74E0D00E14E0D002A
:1094EC00114F0D00814E0D00000000000000000027
:1094FC00794E0D00F54E0D007B4E0D00154F0D00F5
:10950C00A14E0D000000000000000000774E0D0081
:10951C00034F0D00295D0D00194F0D00C14E0D00BC
:10952C000000000000000000FB349B5F8000008006
:10953C0000100000000000007BE327747BF815ACE2
:10954C00DD49A913000072F5FB349B5F800000809D
:10955C0000100000000000000000000000000000EF
:10956C0031690D0037690D0087690D0045690D00E3
:10957C0033690D000000000000000000FF6E0D00BC
:10958C00F56E0D00EB6E0D00E16E0D00D56E0D004D
:10959C00C96E0D00BD6E0D00B56E0D00AB6E0D00ED
:1095AC00A16E0D00A9830D0000000000000000005A
:1095BC002D6F0D001D6F0D001F6F0D002564002514
:1095CC0075007525303478006261756400536572DE
:1095DC0069616C31004A534F4E53747265616D4C26
:1095EC006F6748616E646C65720061707000253045
:1095FC0031307520005D20002C200028293A2000F5
:10960C00205B00636F6465203D2000256900646564
:10961C007461696C73203D20000D0A006D006300BD
:10962C0066006C6E00666E00636F64650064657442
:10963C0061696C000000000000000000E7730D0081
:10964C000D740D00CD730D002D700D000000000089
:10965C000000000051780D0069780D0029800D0084
:10966C00C3400D0000000000000000007D780D00DC
:10967C0091780D00CD810D00D5730D000000000018
:10968C0000000000E5730D001B740D00657F0D00DC
:10969C00D7730D000000000000000000E3730D0004
:1096AC0029740D0099770D0045740D000000000021
:1096BC000000000041830D004B830D0055830D000D
:1096CC005F830D0069830D0075830D0081830D0090
:1096DC008D830D0095830D009F830D00A9830D00D4
:1096EC0025592D256D2D25645425483A254D3A25AF
:1096FC0053257A0061736374696D65000000000086
:10970C000000000049880D00B5880D008D880D0003
:10971C0091840D005D880D0079880D006B880D001B
:10972C0087880D004B880D004F880D00000000004D
:10973C00000000005D890D00C5890D009B890D009E
:10974C0091840D008D890D005F890D006F890D00CE
:10975C00BF890D007F890D0059890D0000000000A4
:10976C0000000000CF8A0D00C58A0D00BB8A0D00D9
:10977C00718A0D00AF8A0D00A38A0D00978A0D0027
:10978C008F8A0D00858A0D007B8A0D00A9830D0040
:10979C0000537431395F53705F6D616B655F736833
:1097AC00617265645F74616700000000F8970D00DA
:1097BC009D970D0058980D00CC970D007C980D00CE
:1097CC004E31305F5F637878616269763131375F33
:1097DC005F636C6173735F747970655F696E666FDC
:1097EC004500000000000000C0970D00758C0D00B6
:1097FC00898C0D001D8E0D001D8E0D00F38C0D003F
:10980C00358C0D00DB8C0D009D8C0D00698C0D00D2
:10981C0058980D0028980D00C0970D004E31305F00
:10982C005F637878616269763132305F5F73695F4C
:10983C00636C6173735F747970655F696E666F4595
:10984C0000000000000000001C980D001D8D0D0094
:10985C00318D0D001D8E0D001D8E0D00F38C0D0035
:10986C00358C0D00F18D0D007D8D0D00458D0D009D
:10987C00F8970D0084980D00537439747970655FF6
:10988C00696E666F000020202020202020202028D8
:10989C00282828282020202020202020202020209C
:1098AC0020202020202088101010101010101010D4
:1098BC001010101010100404040404040404040414
:1098CC001010101010101041414141414101010193
:1098DC00010101010101010101010101010101016C
:1098EC000110101010101042424242424202020279
:1098FC00020202020202020202020202020202023C
:10990C0002101010102000000000000000000000E9
:10991C00000000000000000000000000000000003B
:10992C00000000000000000000000000000000002B
:10993C00000000000000000000000000000000001B
:10994C00000000000000000000000000000000000B
:10995C0000000000000000000000000000000000FB
:10996C0000000000000000000000000000000000EB
:10997C0000000000000000000000000000000000DB
:10998C0000000000000000006D470D0009690D008B
:10999C00096F0D0019800D007D840D00A9850D0047
:1099AC00F9870D0035880D00D98A0D0000000000E4
:0499BC0000000000A7
:0499C00000000000A3
:1099C40090960D00A8960D0000970D0088DE0320E8
:1099D4000000000000000000000000000000000083
:1099E4000000000000000000000000000000000073
:1099F4000000000000000000000000000000000063
:109A04000000000000000000000000000000000052
:109A14000000000000000000000000000000000042
:109A24000000000000000000000000000000000032
:109A3400FFFFFFFF00000102030405060708090AEF
:109A44000B0C0D0E0F101112131415161718191AEA
:089A54001B1C1D1E1F20280031
:049A5C0078563412F2
:04000003D000401CCD
:00000001FF
